{
  "contractName": "LightSigFactory",
  "abi": [
    {
      "anonymous": false,
      "inputs": [
        {
          "indexed": true,
          "name": "trackingId",
          "type": "uint32"
        },
        {
          "indexed": true,
          "name": "deployedAddress",
          "type": "address"
        }
      ],
      "name": "Deployed",
      "type": "event"
    },
    {
      "constant": false,
      "inputs": [
        {
          "name": "trackingId",
          "type": "uint32"
        },
        {
          "name": "_owners",
          "type": "address[]"
        },
        {
          "name": "_requiredSignatures",
          "type": "uint256"
        },
        {
          "name": "chainId",
          "type": "uint256"
        }
      ],
      "name": "createLightSig",
      "outputs": [
        {
          "name": "",
          "type": "address"
        }
      ],
      "payable": false,
      "stateMutability": "nonpayable",
      "type": "function"
    }
  ],
  "bytecode": "0x608060405234801561001057600080fd5b50611521806100206000396000f3fe608060405234801561001057600080fd5b506004361061002b5760003560e01c80632e47d93814610030575b600080fd5b61010a6004803603608081101561004657600080fd5b81019080803563ffffffff1690602001909291908035906020019064010000000081111561007357600080fd5b82018360208201111561008557600080fd5b803590602001918460208302840111640100000000831117156100a757600080fd5b919080806020026020016040519081016040528093929190818152602001838360200280828437600081840152601f19601f820116905080830192505050505050509192919290803590602001909291908035906020019092919050505061014c565b604051808273ffffffffffffffffffffffffffffffffffffffff1673ffffffffffffffffffffffffffffffffffffffff16815260200191505060405180910390f35b60008084848460405161015e90610232565b8080602001848152602001838152602001828103825285818151815260200191508051906020019060200280838360005b838110156101aa57808201518184015260208101905061018f565b50505050905001945050505050604051809103906000f0801580156101d3573d6000803e3d6000fd5b50905060008190508073ffffffffffffffffffffffffffffffffffffffff168763ffffffff167fba5285b84651acd547d12c138b1bce93c142e1d5223a2ea4db8e1456f749d8fb60405160405180910390a38092505050949350505050565b6112b6806102408339019056fe6080604052600060025560006003553480156200001b57600080fd5b50604051620012b6380380620012b6833981018060405260608110156200004157600080fd5b8101908080516401000000008111156200005a57600080fd5b828101905060208101848111156200007157600080fd5b81518560208202830111640100000000821117156200008f57600080fd5b5050929190602001805190602001909291908051906020019092919050505060008351118015620000c25750600a835111155b62000119576040517f08c379a0000000000000000000000000000000000000000000000000000000008152600401808060200182810382526022815260200180620012656022913960400191505060405180910390fd5b6000821180156200012b575082518211155b62000182576040517f08c379a000000000000000000000000000000000000000000000000000000000815260040180806020018281038252602f81526020018062001287602f913960400191505060405180910390fd5b600080905060008090505b8451811015620002c1578173ffffffffffffffffffffffffffffffffffffffff16858281518110620001bb57fe5b602002602001015173ffffffffffffffffffffffffffffffffffffffff161162000231576040517f08c379a000000000000000000000000000000000000000000000000000000000815260040180806020018281038252602b8152602001806200123a602b913960400191505060405180910390fd5b60018060008784815181106200024357fe5b602002602001015173ffffffffffffffffffffffffffffffffffffffff1673ffffffffffffffffffffffffffffffffffffffff16815260200190815260200160002060006101000a81548160ff021916908315150217905550848181518110620002a957fe5b6020026020010151915080806001019150506200018d565b508360009080519060200190620002da929190620003f9565b50826003819055507fd87cd6ef79d4e2b95e15ce8abf732db51ec771f1ca2edccf22a46c729ac5647260001b7fe0f1e1c99009e212fa1e207fccef2ee9432c52bbf5ef25688885ea0cce69531d60001b7fc89efdaa54c0f20c7adf612882df0950f5a951637e0307cdcb4c672f298b8bc660001b84307f251543af6a222378665a76fe38dbceae4871a070b7fdaf5c6c30cf758dc33cc060001b604051602001808781526020018681526020018581526020018481526020018373ffffffffffffffffffffffffffffffffffffffff1673ffffffffffffffffffffffffffffffffffffffff16815260200182815260200196505050505050506040516020818303038152906040528051906020012060048190555050505050620004ce565b82805482825590600052602060002090810192821562000475579160200282015b82811115620004745782518260006101000a81548173ffffffffffffffffffffffffffffffffffffffff021916908373ffffffffffffffffffffffffffffffffffffffff160217905550916020019190600101906200041a565b5b50905062000484919062000488565b5090565b620004cb91905b80821115620004c757600081816101000a81549073ffffffffffffffffffffffffffffffffffffffff0219169055506001016200048f565b5090565b90565b610d5c80620004de6000396000f3fe60806040526004361061004a5760003560e01c8063025e7c271461009a57806316636745146101155780633644e515146103db5780638d06804314610406578063affed0e014610431575b3373ffffffffffffffffffffffffffffffffffffffff167fe1fffcc4923d04b559f4d29a8bfc6cda04eb5b0d3c460751c2402c5c5cc9109c346040518082815260200191505060405180910390a2005b3480156100a657600080fd5b506100d3600480360360208110156100bd57600080fd5b810190808035906020019092919050505061045c565b604051808273ffffffffffffffffffffffffffffffffffffffff1673ffffffffffffffffffffffffffffffffffffffff16815260200191505060405180910390f35b34801561012157600080fd5b506103c1600480360360c081101561013857600080fd5b810190808035906020019064010000000081111561015557600080fd5b82018360208201111561016757600080fd5b8035906020019184602083028401116401000000008311171561018957600080fd5b919080806020026020016040519081016040528093929190818152602001838360200280828437600081840152601f19601f820116905080830192505050505050509192919290803590602001906401000000008111156101e957600080fd5b8201836020820111156101fb57600080fd5b8035906020019184602083028401116401000000008311171561021d57600080fd5b919080806020026020016040519081016040528093929190818152602001838360200280828437600081840152601f19601f8201169050808301925050505050505091929192908035906020019064010000000081111561027d57600080fd5b82018360208201111561028f57600080fd5b803590602001918460208302840111640100000000831117156102b157600080fd5b919080806020026020016040519081016040528093929190818152602001838360200280828437600081840152601f19601f820116905080830192505050505050509192919290803573ffffffffffffffffffffffffffffffffffffffff169060200190929190803590602001909291908035906020019064010000000081111561033b57600080fd5b82018360208201111561034d57600080fd5b8035906020019184600183028401116401000000008311171561036f57600080fd5b91908080601f016020809104026020016040519081016040528093929190818152602001838380828437600081840152601f19601f820116905080830192505050505050509192919290505050610498565b604051808215151515815260200191505060405180910390f35b3480156103e757600080fd5b506103f0610c03565b6040518082815260200191505060405180910390f35b34801561041257600080fd5b5061041b610c09565b6040518082815260200191505060405180910390f35b34801561043d57600080fd5b50610446610c0f565b6040518082815260200191505060405180910390f35b6000818154811061046957fe5b906000526020600020016000915054906101000a900473ffffffffffffffffffffffffffffffffffffffff1681565b6000845186511480156104ac575086518651145b61051e576040517f08c379a000000000000000000000000000000000000000000000000000000000815260040180806020018281038252601f8152602001807f53696720617272617973206e6f74207468652073616d65206c656e677468730081525060200191505060405180910390fd5b600354865114610579576040517f08c379a000000000000000000000000000000000000000000000000000000000815260040180806020018281038252602a815260200180610ce4602a913960400191505060405180910390fd5b600160003373ffffffffffffffffffffffffffffffffffffffff1673ffffffffffffffffffffffffffffffffffffffff16815260200190815260200160002060009054906101000a900460ff1661061b576040517f08c379a0000000000000000000000000000000000000000000000000000000008152600401808060200182810382526023815260200180610d0e6023913960400191505060405180910390fd5b60007febbfa7b286e52d30a13889efa8ca90a696b0e6ec0936c8688c357c7d2bdd043060001b85858580519060200120600254604051602001808681526020018573ffffffffffffffffffffffffffffffffffffffff1673ffffffffffffffffffffffffffffffffffffffff1681526020018481526020018381526020018281526020019550505050505060405160208183030381529060405280519060200120905060006004548260405160200180807f19010000000000000000000000000000000000000000000000000000000000008152506002018381526020018281526020019250505060405160208183030381529060405280519060200120905060606040518060400160405280601c81526020017f19457468657265756d205369676e6564204d6573736167653a0a3332000000008152509050600081836040516020018083805190602001908083835b6020831061078f578051825260208201915060208101905060208303925061076c565b6001836020036101000a03801982511681845116808217855250505050505090500182815260200192505050604051602081830303815290604052805190602001209050600080905060008090505b6003548110156109a257600061082f848f84815181106107fa57fe5b60200260200101518f858151811061080e57fe5b60200260200101518f868151811061082257fe5b6020026020010151610c15565b9050600160008273ffffffffffffffffffffffffffffffffffffffff1673ffffffffffffffffffffffffffffffffffffffff16815260200190815260200160002060009054906101000a900460ff166108f0576040517f08c379a000000000000000000000000000000000000000000000000000000000815260040180806020018281038252601f8152602001807f5369676e6174757265206d7573742062652066726f6d20616e206f776e65720081525060200191505060405180910390fd5b8273ffffffffffffffffffffffffffffffffffffffff168173ffffffffffffffffffffffffffffffffffffffff1611610991576040517f08c379a00000000000000000000000000000000000000000000000000000000081526004018080602001828103825260188152602001807f5369676e6174757265206d75737420626520756e69717565000000000000000081525060200191505060405180910390fd5b8092505080806001019150506107de565b5060016002540160028190555060008973ffffffffffffffffffffffffffffffffffffffff1689896040518082805190602001908083835b602083106109fd57805182526020820191506020810190506020830392506109da565b6001836020036101000a03801982511681845116808217855250505050505090500191505060006040518083038185875af1925050503d8060008114610a5f576040519150601f19603f3d011682016040523d82523d6000602084013e610a64565b606091505b505090508015610b31578973ffffffffffffffffffffffffffffffffffffffff166002547fedde58bc1eda2dcabe4c2ecfa4fc29862b663603e92d813f4fef217f0dd3597c8b8b6040518083815260200180602001828103825283818151815260200191508051906020019080838360005b83811015610af1578082015181840152602081019050610ad6565b50505050905090810190601f168015610b1e5780820380516001836020036101000a031916815260200191505b50935050505060405180910390a3610bf0565b8973ffffffffffffffffffffffffffffffffffffffff166002547f87a63d04721a887e5a9303fb7950409e32f976f0e09bda2790353b5846a28d358b8b6040518083815260200180602001828103825283818151815260200191508051906020019080838360005b83811015610bb4578082015181840152602081019050610b99565b50505050905090810190601f168015610be15780820380516001836020036101000a031916815260200191505b50935050505060405180910390a35b8096505050505050509695505050505050565b60045481565b60035481565b60025481565b60007f7fffffffffffffffffffffffffffffff5d576e7357a4501ddfe92f46681b20a08260001c1115610c4b5760009050610cdb565b601b8460ff1614158015610c635750601c8460ff1614155b15610c715760009050610cdb565b60018585858560405160008152602001604052604051808581526020018460ff1660ff1681526020018381526020018281526020019450505050506020604051602081039080840390855afa158015610cce573d6000803e3d6000fd5b5050506020604051035190505b94935050505056fe5369676e617475726573206c697374206973206e6f7420746865206578706563746564206c656e6774684f6e6c79206f776e6572732063616e207375626d6974207472616e73616374696f6e73a165627a7a72305820e27124fbe05b0ceeb1d29aef465a268f79f28dfa001600269abf3a696a1f0b5500294f776e657220616464726573736573206d75737420626520756e6971756520616e6420696e206f726465724f776e657273204c697374206d696e206973203120616e64206d61782069732031305265717569726564207369676e617475726573206d75737420626520696e207468652070726f7065722072616e6765a165627a7a723058209bbd1ed92434061055b11b6445c9de901f0a0bf3bdd6de8f5bba5f1bfb3655e60029",
  "source": "pragma solidity 0.5.8;\n\nimport \"./LightSig.sol\";\n\n/**\n * LightSig Factory creates new instances of the multisig contract and triggers an event\n * for listeners to see the new contract.\n */\ncontract LightSigFactory {\n\n  // Event to track deployments\n  event Deployed(uint32 indexed trackingId, address indexed deployedAddress);\n\n  /**\n   * Function called by external addresses to create a new multisig contract\n   */\n  function createLightSig(uint32 trackingId, address[] memory _owners, uint _requiredSignatures, uint chainId) public returns (address) {\n    // Deploy the contract\n    LightSig deployedContract = new LightSig(_owners, _requiredSignatures, chainId);\n\n    // Get the newly deployed address\n    address deployedAddress = address(deployedContract);\n\n    // Trigger the event for any listeners\n    emit Deployed(trackingId, deployedAddress);\n\n    // Return address back to caller if applicable\n    return deployedAddress;\n  }\n}",
  "sourcePath": "/Users/james/Source/tokensoft/LightSig/contracts/LightSigFactory.sol",
  "compiler": {
    "name": "solc",
    "version": "0.5.8+commit.23d335f2.Emscripten.clang"
  },
  "schemaVersion": "3.0.11",
  "updatedAt": "2019-08-27T01:40:21.877Z",
  "devdoc": {
    "methods": {}
  },
  "userdoc": {
    "methods": {
      "createLightSig(uint32,address[],uint256,uint256)": {
        "notice": "Function called by external addresses to create a new multisig contract"
      }
    },
    "notice": "LightSig Factory creates new instances of the multisig contract and triggers an event for listeners to see the new contract."
  }
}