{
  "contractName": "LightSig",
  "abi": [
    {
      "constant": true,
      "inputs": [
        {
          "name": "",
          "type": "uint256"
        }
      ],
      "name": "owners",
      "outputs": [
        {
          "name": "",
          "type": "address"
        }
      ],
      "payable": false,
      "stateMutability": "view",
      "type": "function"
    },
    {
      "constant": true,
      "inputs": [],
      "name": "DOMAIN_SEPARATOR",
      "outputs": [
        {
          "name": "",
          "type": "bytes32"
        }
      ],
      "payable": false,
      "stateMutability": "view",
      "type": "function"
    },
    {
      "constant": true,
      "inputs": [],
      "name": "requiredSignatures",
      "outputs": [
        {
          "name": "",
          "type": "uint256"
        }
      ],
      "payable": false,
      "stateMutability": "view",
      "type": "function"
    },
    {
      "constant": true,
      "inputs": [],
      "name": "nonce",
      "outputs": [
        {
          "name": "",
          "type": "uint256"
        }
      ],
      "payable": false,
      "stateMutability": "view",
      "type": "function"
    },
    {
      "payable": true,
      "stateMutability": "payable",
      "type": "fallback"
    },
    {
      "anonymous": false,
      "inputs": [
        {
          "indexed": true,
          "name": "source",
          "type": "address"
        },
        {
          "indexed": false,
          "name": "value",
          "type": "uint256"
        }
      ],
      "name": "Deposit",
      "type": "event"
    },
    {
      "anonymous": false,
      "inputs": [
        {
          "indexed": true,
          "name": "transactionId",
          "type": "uint256"
        },
        {
          "indexed": true,
          "name": "destination",
          "type": "address"
        },
        {
          "indexed": false,
          "name": "value",
          "type": "uint256"
        },
        {
          "indexed": false,
          "name": "data",
          "type": "bytes"
        }
      ],
      "name": "Execution",
      "type": "event"
    },
    {
      "anonymous": false,
      "inputs": [
        {
          "indexed": true,
          "name": "transactionId",
          "type": "uint256"
        },
        {
          "indexed": true,
          "name": "destination",
          "type": "address"
        },
        {
          "indexed": false,
          "name": "value",
          "type": "uint256"
        },
        {
          "indexed": false,
          "name": "data",
          "type": "bytes"
        }
      ],
      "name": "ExecutionFailure",
      "type": "event"
    },
    {
      "constant": false,
      "inputs": [
        {
          "name": "_owners",
          "type": "address[]"
        },
        {
          "name": "_requiredSignatures",
          "type": "uint256"
        },
        {
          "name": "chainId",
          "type": "uint256"
        }
      ],
      "name": "init",
      "outputs": [],
      "payable": false,
      "stateMutability": "nonpayable",
      "type": "function"
    },
    {
      "constant": false,
      "inputs": [
        {
          "name": "sigV",
          "type": "uint8[]"
        },
        {
          "name": "sigR",
          "type": "bytes32[]"
        },
        {
          "name": "sigS",
          "type": "bytes32[]"
        },
        {
          "name": "destination",
          "type": "address"
        },
        {
          "name": "value",
          "type": "uint256"
        },
        {
          "name": "data",
          "type": "bytes"
        }
      ],
      "name": "submit",
      "outputs": [
        {
          "name": "",
          "type": "bool"
        }
      ],
      "payable": false,
      "stateMutability": "nonpayable",
      "type": "function"
    }
  ],
  "bytecode": "0x6080604052600060025560006003556000600560006101000a81548160ff02191690831515021790555034801561003557600080fd5b50611321806100456000396000f3fe6080604052600436106100555760003560e01c8063025e7c27146100a557806316636745146101205780633644e515146103e65780638d06804314610411578063affed0e01461043c578063ce7e8fcf14610467575b3373ffffffffffffffffffffffffffffffffffffffff167fe1fffcc4923d04b559f4d29a8bfc6cda04eb5b0d3c460751c2402c5c5cc9109c346040518082815260200191505060405180910390a2005b3480156100b157600080fd5b506100de600480360360208110156100c857600080fd5b8101908080359060200190929190505050610540565b604051808273ffffffffffffffffffffffffffffffffffffffff1673ffffffffffffffffffffffffffffffffffffffff16815260200191505060405180910390f35b34801561012c57600080fd5b506103cc600480360360c081101561014357600080fd5b810190808035906020019064010000000081111561016057600080fd5b82018360208201111561017257600080fd5b8035906020019184602083028401116401000000008311171561019457600080fd5b919080806020026020016040519081016040528093929190818152602001838360200280828437600081840152601f19601f820116905080830192505050505050509192919290803590602001906401000000008111156101f457600080fd5b82018360208201111561020657600080fd5b8035906020019184602083028401116401000000008311171561022857600080fd5b919080806020026020016040519081016040528093929190818152602001838360200280828437600081840152601f19601f8201169050808301925050505050505091929192908035906020019064010000000081111561028857600080fd5b82018360208201111561029a57600080fd5b803590602001918460208302840111640100000000831117156102bc57600080fd5b919080806020026020016040519081016040528093929190818152602001838360200280828437600081840152601f19601f820116905080830192505050505050509192919290803573ffffffffffffffffffffffffffffffffffffffff169060200190929190803590602001909291908035906020019064010000000081111561034657600080fd5b82018360208201111561035857600080fd5b8035906020019184600183028401116401000000008311171561037a57600080fd5b91908080601f016020809104026020016040519081016040528093929190818152602001838380828437600081840152601f19601f82011690508083019250505050505050919291929050505061057c565b604051808215151515815260200191505060405180910390f35b3480156103f257600080fd5b506103fb610cc7565b6040518082815260200191505060405180910390f35b34801561041d57600080fd5b50610426610ccd565b6040518082815260200191505060405180910390f35b34801561044857600080fd5b50610451610cd3565b6040518082815260200191505060405180910390f35b34801561047357600080fd5b5061053e6004803603606081101561048a57600080fd5b81019080803590602001906401000000008111156104a757600080fd5b8201836020820111156104b957600080fd5b803590602001918460208302840111640100000000831117156104db57600080fd5b919080806020026020016040519081016040528093929190818152602001838360200280828437600081840152601f19601f8201169050808301925050505050505091929192908035906020019092919080359060200190929190505050610cd9565b005b6000818154811061054d57fe5b906000526020600020016000915054906101000a900473ffffffffffffffffffffffffffffffffffffffff1681565b6000600560009054906101000a900460ff16610600576040517f08c379a000000000000000000000000000000000000000000000000000000000815260040180806020018281038252601f8152602001807f496e697469616c697a6174696f6e206d75737420626520636f6d706c6574650081525060200191505060405180910390fd5b84518651148015610612575086518651145b610684576040517f08c379a000000000000000000000000000000000000000000000000000000000815260040180806020018281038252601f8152602001807f53696720617272617973206e6f74207468652073616d65206c656e677468730081525060200191505060405180910390fd5b6003548651146106df576040517f08c379a000000000000000000000000000000000000000000000000000000000815260040180806020018281038252602a81526020018061122e602a913960400191505060405180910390fd5b60007febbfa7b286e52d30a13889efa8ca90a696b0e6ec0936c8688c357c7d2bdd043060001b85858580519060200120600254604051602001808681526020018573ffffffffffffffffffffffffffffffffffffffff1673ffffffffffffffffffffffffffffffffffffffff1681526020018481526020018381526020018281526020019550505050505060405160208183030381529060405280519060200120905060006004548260405160200180807f19010000000000000000000000000000000000000000000000000000000000008152506002018381526020018281526020019250505060405160208183030381529060405280519060200120905060606040518060400160405280601c81526020017f19457468657265756d205369676e6564204d6573736167653a0a3332000000008152509050600081836040516020018083805190602001908083835b602083106108535780518252602082019150602081019050602083039250610830565b6001836020036101000a03801982511681845116808217855250505050505090500182815260200192505050604051602081830303815290604052805190602001209050600080905060008090505b600354811015610a665760006108f3848f84815181106108be57fe5b60200260200101518f85815181106108d257fe5b60200260200101518f86815181106108e657fe5b6020026020010151611092565b9050600160008273ffffffffffffffffffffffffffffffffffffffff1673ffffffffffffffffffffffffffffffffffffffff16815260200190815260200160002060009054906101000a900460ff166109b4576040517f08c379a000000000000000000000000000000000000000000000000000000000815260040180806020018281038252601f8152602001807f5369676e6174757265206d7573742062652066726f6d20616e206f776e65720081525060200191505060405180910390fd5b8273ffffffffffffffffffffffffffffffffffffffff168173ffffffffffffffffffffffffffffffffffffffff1611610a55576040517f08c379a00000000000000000000000000000000000000000000000000000000081526004018080602001828103825260188152602001807f5369676e6174757265206d75737420626520756e69717565000000000000000081525060200191505060405180910390fd5b8092505080806001019150506108a2565b5060016002540160028190555060008973ffffffffffffffffffffffffffffffffffffffff1689896040518082805190602001908083835b60208310610ac15780518252602082019150602081019050602083039250610a9e565b6001836020036101000a03801982511681845116808217855250505050505090500191505060006040518083038185875af1925050503d8060008114610b23576040519150601f19603f3d011682016040523d82523d6000602084013e610b28565b606091505b505090508015610bf5578973ffffffffffffffffffffffffffffffffffffffff166002547fedde58bc1eda2dcabe4c2ecfa4fc29862b663603e92d813f4fef217f0dd3597c8b8b6040518083815260200180602001828103825283818151815260200191508051906020019080838360005b83811015610bb5578082015181840152602081019050610b9a565b50505050905090810190601f168015610be25780820380516001836020036101000a031916815260200191505b50935050505060405180910390a3610cb4565b8973ffffffffffffffffffffffffffffffffffffffff166002547f87a63d04721a887e5a9303fb7950409e32f976f0e09bda2790353b5846a28d358b8b6040518083815260200180602001828103825283818151815260200191508051906020019080838360005b83811015610c78578082015181840152602081019050610c5d565b50505050905090810190601f168015610ca55780820380516001836020036101000a031916815260200191505b50935050505060405180910390a35b8096505050505050509695505050505050565b60045481565b60035481565b60025481565b600560009054906101000a900460ff1615610d3f576040517f08c379a00000000000000000000000000000000000000000000000000000000081526004018080602001828103825260228152602001806112586022913960400191505060405180910390fd5b6001600560006101000a81548160ff02191690831515021790555060008351118015610d6d5750600a835111155b610dc2576040517f08c379a00000000000000000000000000000000000000000000000000000000081526004018080602001828103825260228152602001806112a56022913960400191505060405180910390fd5b600082118015610dd3575082518211155b610e28576040517f08c379a000000000000000000000000000000000000000000000000000000000815260040180806020018281038252602f8152602001806112c7602f913960400191505060405180910390fd5b600080905060008090505b8451811015610f60578173ffffffffffffffffffffffffffffffffffffffff16858281518110610e5f57fe5b602002602001015173ffffffffffffffffffffffffffffffffffffffff1611610ed3576040517f08c379a000000000000000000000000000000000000000000000000000000000815260040180806020018281038252602b81526020018061127a602b913960400191505060405180910390fd5b6001806000878481518110610ee457fe5b602002602001015173ffffffffffffffffffffffffffffffffffffffff1673ffffffffffffffffffffffffffffffffffffffff16815260200190815260200160002060006101000a81548160ff021916908315150217905550848181518110610f4957fe5b602002602001015191508080600101915050610e33565b508360009080519060200190610f77929190611160565b50826003819055507fd87cd6ef79d4e2b95e15ce8abf732db51ec771f1ca2edccf22a46c729ac5647260001b7fe0f1e1c99009e212fa1e207fccef2ee9432c52bbf5ef25688885ea0cce69531d60001b7fc89efdaa54c0f20c7adf612882df0950f5a951637e0307cdcb4c672f298b8bc660001b84307f251543af6a222378665a76fe38dbceae4871a070b7fdaf5c6c30cf758dc33cc060001b604051602001808781526020018681526020018581526020018481526020018373ffffffffffffffffffffffffffffffffffffffff1673ffffffffffffffffffffffffffffffffffffffff16815260200182815260200196505050505050506040516020818303038152906040528051906020012060048190555050505050565b60007f7fffffffffffffffffffffffffffffff5d576e7357a4501ddfe92f46681b20a08260001c11156110c85760009050611158565b601b8460ff16141580156110e05750601c8460ff1614155b156110ee5760009050611158565b60018585858560405160008152602001604052604051808581526020018460ff1660ff1681526020018381526020018281526020019450505050506020604051602081039080840390855afa15801561114b573d6000803e3d6000fd5b5050506020604051035190505b949350505050565b8280548282559060005260206000209081019282156111d9579160200282015b828111156111d85782518260006101000a81548173ffffffffffffffffffffffffffffffffffffffff021916908373ffffffffffffffffffffffffffffffffffffffff16021790555091602001919060010190611180565b5b5090506111e691906111ea565b5090565b61122a91905b8082111561122657600081816101000a81549073ffffffffffffffffffffffffffffffffffffffff0219169055506001016111f0565b5090565b9056fe5369676e617475726573206c697374206973206e6f7420746865206578706563746564206c656e677468496e69742066756e6374696f6e2063616e206f6e6c792062652072756e206f6e63654f776e657220616464726573736573206d75737420626520756e6971756520616e6420696e206f726465724f776e657273204c697374206d696e206973203120616e64206d61782069732031305265717569726564207369676e617475726573206d75737420626520696e207468652070726f7065722072616e6765a165627a7a72305820f014e95ab513a81d96ff6687574cd7b821ba621f7af30b57d8bb3e8aa195e8650029",
  "source": "pragma solidity 0.5.8;\n\n/**\n * LightSig is a lighter weight multisig based on https://github.com/christianlundkvist/simple-multisig\n * Owners aggregate signatures offline and then broadcast a transaction with the required number of signatures.\n * Unlike other multisigs, this is meant to have minimal administration functions and other features in order\n * to reduce the footprint and attack surface.\n */\ncontract LightSig {\n\n    //  Events triggered for incoming and outgoing transactions\n    event Deposit(address indexed source, uint value);\n    event Execution(uint indexed transactionId, address indexed destination, uint value, bytes data);\n    event ExecutionFailure(uint indexed transactionId, address indexed destination, uint value, bytes data);\n\n    // List of owner addresses - for external readers convenience only\n    address[] public owners;\n\n    // Mapping of owner address to keep track for lookups\n    mapping(address => bool) ownersMap;\n\n    // Nonce increments by one on each broadcast transaction to prevent replays\n    uint public nonce = 0;\n\n    // Number of required signatures from the list of owners\n    uint public requiredSignatures = 0;\n\n    // EIP712 Precomputed hashes:\n    // keccak256(\"EIP712Domain(string name,string version,uint256 chainId,address verifyingContract,bytes32 salt)\")\n    bytes32 constant EIP712DOMAINTYPE_HASH = 0xd87cd6ef79d4e2b95e15ce8abf732db51ec771f1ca2edccf22a46c729ac56472;\n\n    // keccak256(\"LightSig\")\n    bytes32 constant NAME_HASH = 0xe0f1e1c99009e212fa1e207fccef2ee9432c52bbf5ef25688885ea0cce69531d;\n\n    // keccak256(\"1\")\n    bytes32 constant VERSION_HASH = 0xc89efdaa54c0f20c7adf612882df0950f5a951637e0307cdcb4c672f298b8bc6;\n\n    // keccak256(\"MultiSigTransaction(address destination,uint256 value,bytes data,uint256 nonce)\")\n    bytes32 constant TXTYPE_HASH = 0xebbfa7b286e52d30a13889efa8ca90a696b0e6ec0936c8688c357c7d2bdd0430;\n\n    // keccak256(\"POOLE_PARTY\")\n    bytes32 constant SALT = 0x251543af6a222378665a76fe38dbceae4871a070b7fdaf5c6c30cf758dc33cc0;\n\n    // Hash for EIP712, computed from data and contract address - ensures it can't be replayed against\n    // other contracts or chains\n    bytes32 public DOMAIN_SEPARATOR;\n\n    // Track init state\n    bool initialized = false;\n\n    // The init function inputs a list of owners and the number of signatures that\n    //   are required before a transaction is executed.\n    // Owners list must be in ascending address order.\n    // Required sigs must be greater than 0 and less than or equal to number of owners.\n    // Chain ID prevents replay across chains\n    // This function can only be run one time\n    function init(address[] memory _owners, uint _requiredSignatures, uint chainId) public {\n        // Verify it can't be initialized again\n        require(!initialized, \"Init function can only be run once\");\n        initialized = true;\n\n        // Verify the lengths of values being passed in\n        require(_owners.length > 0 && _owners.length <= 10, \"Owners List min is 1 and max is 10\");\n        require(\n            _requiredSignatures > 0 && _requiredSignatures <= _owners.length,\n            \"Required signatures must be in the proper range\"\n        );\n\n        // Verify the owners list is valid and in order\n        // No 0 addresses or duplicates\n        address lastAdd = address(0);\n        for (uint i = 0; i < _owners.length; i++) {\n            require(_owners[i] > lastAdd, \"Owner addresses must be unique and in order\");\n            ownersMap[_owners[i]] = true;\n            lastAdd = _owners[i];\n        }\n\n        // Save off owner list and required sig.\n        owners = _owners;\n        requiredSignatures = _requiredSignatures;\n\n        DOMAIN_SEPARATOR = keccak256(\n            abi.encode(EIP712DOMAINTYPE_HASH,\n            NAME_HASH,\n            VERSION_HASH,\n            chainId,\n            address(this),\n            SALT)\n        );\n    }\n\n    /**\n     * This function is adapted from the OpenZeppelin libarary but instead of passing in bytes\n     * array, it already has the sig fields broken down.\n     *\n     * @dev Returns the address that signed a hashed message (`hash`) with\n     * `signature`. This address can then be used for verification purposes.\n     *\n     * The `ecrecover` EVM opcode allows for malleable (non-unique) signatures:\n     * this function rejects them by requiring the `s` value to be in the lower\n     * half order, and the `v` value to be either 27 or 28.\n     *\n     * (.note) This call _does not revert_ if the signature is invalid, or\n     * if the signer is otherwise unable to be retrieved. In those scenarios,\n     * the zero address is returned.\n     *\n     * (.warning) `hash` _must_ be the result of a hash operation for the\n     * verification to be secure: it is possible to craft signatures that\n     * recover to arbitrary addresses for non-hashed data. A safe way to ensure\n     * this is by receiving a hash of the original message (which may otherwise)\n     * be too long), and then calling `toEthSignedMessageHash` on it.\n     */\n    function safeRecover(bytes32 hash, uint8 v, bytes32 r, bytes32 s) internal pure returns (address) {\n\n        // EIP-2 still allows signature malleability for ecrecover(). Remove this possibility and make the signature\n        // unique. Appendix F in the Ethereum Yellow paper (https://ethereum.github.io/yellowpaper/paper.pdf), defines\n        // the valid range for s in (281): 0 < s < secp256k1n ÷ 2 + 1, and for v in (282): v ∈ {27, 28}. Most\n        // signatures from current libraries generate a unique signature with an s-value in the lower half order.\n        //\n        // If your library generates malleable signatures, such as s-values in the upper range, calculate a new s-value\n        // with 0xFFFFFFFFFFFFFFFFFFFFFFFFFFFFFFFEBAAEDCE6AF48A03BBFD25E8CD0364141 - s1 and flip v from 27 to 28 or\n        // vice versa. If your library also generates signatures with 0/1 for v instead 27/28, add 27 to v to accept\n        // these malleable signatures as well.\n        if (uint256(s) > 0x7FFFFFFFFFFFFFFFFFFFFFFFFFFFFFFF5D576E7357A4501DDFE92F46681B20A0) {\n            return address(0);\n        }\n\n        if (v != 27 && v != 28) {\n            return address(0);\n        }\n\n        // If the signature is valid (and not malleable), return the signer address\n        return ecrecover(hash, v, r, s);\n    }\n\n    /**\n     * Once the owners of the multisig have signed across the payload, they can submit it to this function.\n     * This will verify enough signatures were aggregated and then broadcast the transaction.\n     * It can be used to send ETH or trigger a function call against another address (or both).\n     *\n     * Signatures must be in the correct ascending order (according to associated addresses)\n     */\n    function submit(\n        uint8[] memory sigV,\n        bytes32[] memory sigR,\n        bytes32[] memory sigS,\n        address destination,\n        uint value,\n        bytes memory data\n    ) public returns (bool)\n    {\n        // Verify initialized\n        require(initialized, \"Initialization must be complete\");\n\n        // Verify signature lengths\n        require(sigR.length == sigS.length && sigR.length == sigV.length, \"Sig arrays not the same lengths\");\n        require(sigR.length == requiredSignatures, \"Signatures list is not the expected length\");\n\n        // EIP712 scheme: https://github.com/ethereum/EIPs/blob/master/EIPS/eip-712.md\n        // Note that the nonce is always included from the contract state to prevent replay attacks\n        bytes32 txInputHash = keccak256(abi.encode(TXTYPE_HASH, destination, value, keccak256(data), nonce));\n        bytes32 totalHash = keccak256(abi.encodePacked(\"\\x19\\x01\", DOMAIN_SEPARATOR, txInputHash));\n\n        // Add in the ETH specific prefix\n        bytes memory prefix = \"\\x19Ethereum Signed Message:\\n32\";\n        bytes32 prefixedHash = keccak256(abi.encodePacked(prefix, totalHash));\n\n        // Iterate and verify signatures are from owners\n        address lastAdd = address(0); // cannot have address(0) as an owner\n        for (uint i = 0; i < requiredSignatures; i++) {\n\n            // Recover the address from the signature - if anything is wrong, this will return 0\n            address recovered = safeRecover(prefixedHash, sigV[i], sigR[i], sigS[i]);\n\n            // Ensure the signature is from an owner address and there are no duplicates\n            // Also verifies error of 0 returned\n            require(ownersMap[recovered], \"Signature must be from an owner\");\n            require(recovered > lastAdd, \"Signature must be unique\");\n            lastAdd = recovered;\n        }\n\n        // Increment the nonce before making external call\n        nonce = nonce + 1;\n        (bool success, ) = address(destination).call.value(value)(data);\n        if(success) {\n            emit Execution(nonce, destination, value, data);\n        } else {\n            emit ExecutionFailure(nonce, destination, value, data);\n        }\n\n        return success;\n    }\n\n    // Allow ETH to be sent to this contract\n    function () external payable {\n        emit Deposit(msg.sender, msg.value);\n    }\n\n}\n",
  "sourcePath": "/Users/james/Source/tokensoft/LightSig/contracts/LightSig.sol",
  "compiler": {
    "name": "solc",
    "version": "0.5.8+commit.23d335f2.Emscripten.clang"
  },
  "schemaVersion": "3.0.11",
  "updatedAt": "2019-11-04T23:22:05.283Z",
  "devdoc": {
    "methods": {}
  },
  "userdoc": {
    "methods": {
      "submit(uint8[],bytes32[],bytes32[],address,uint256,bytes)": {
        "notice": "Once the owners of the multisig have signed across the payload, they can submit it to this function. This will verify enough signatures were aggregated and then broadcast the transaction. It can be used to send ETH or trigger a function call against another address (or both).     * Signatures must be in the correct ascending order (according to associated addresses)"
      }
    },
    "notice": "LightSig is a lighter weight multisig based on https://github.com/christianlundkvist/simple-multisig Owners aggregate signatures offline and then broadcast a transaction with the required number of signatures. Unlike other multisigs, this is meant to have minimal administration functions and other features in order to reduce the footprint and attack surface."
  }
}