{
  "contractName": "LightSigFactory",
  "abi": [
    {
      "constant": true,
      "inputs": [
        {
          "name": "addressToTest",
          "type": "address"
        }
      ],
      "name": "isAdministrator",
      "outputs": [
        {
          "name": "",
          "type": "bool"
        }
      ],
      "payable": false,
      "stateMutability": "view",
      "type": "function"
    },
    {
      "constant": false,
      "inputs": [
        {
          "name": "adminToRemove",
          "type": "address"
        }
      ],
      "name": "removeAdmin",
      "outputs": [],
      "payable": false,
      "stateMutability": "nonpayable",
      "type": "function"
    },
    {
      "constant": false,
      "inputs": [
        {
          "name": "adminToAdd",
          "type": "address"
        }
      ],
      "name": "addAdmin",
      "outputs": [],
      "payable": false,
      "stateMutability": "nonpayable",
      "type": "function"
    },
    {
      "constant": false,
      "inputs": [],
      "name": "renounceOwnership",
      "outputs": [],
      "payable": false,
      "stateMutability": "nonpayable",
      "type": "function"
    },
    {
      "constant": true,
      "inputs": [
        {
          "name": "",
          "type": "address"
        }
      ],
      "name": "administrators",
      "outputs": [
        {
          "name": "",
          "type": "bool"
        }
      ],
      "payable": false,
      "stateMutability": "view",
      "type": "function"
    },
    {
      "constant": true,
      "inputs": [],
      "name": "owner",
      "outputs": [
        {
          "name": "",
          "type": "address"
        }
      ],
      "payable": false,
      "stateMutability": "view",
      "type": "function"
    },
    {
      "constant": true,
      "inputs": [],
      "name": "isOwner",
      "outputs": [
        {
          "name": "",
          "type": "bool"
        }
      ],
      "payable": false,
      "stateMutability": "view",
      "type": "function"
    },
    {
      "constant": false,
      "inputs": [
        {
          "name": "newOwner",
          "type": "address"
        }
      ],
      "name": "transferOwnership",
      "outputs": [],
      "payable": false,
      "stateMutability": "nonpayable",
      "type": "function"
    },
    {
      "inputs": [],
      "payable": false,
      "stateMutability": "nonpayable",
      "type": "constructor"
    },
    {
      "anonymous": false,
      "inputs": [
        {
          "indexed": true,
          "name": "deployedAddress",
          "type": "address"
        }
      ],
      "name": "Deployed",
      "type": "event"
    },
    {
      "anonymous": false,
      "inputs": [
        {
          "indexed": true,
          "name": "addedAdmin",
          "type": "address"
        },
        {
          "indexed": true,
          "name": "addedBy",
          "type": "address"
        }
      ],
      "name": "AdminAdded",
      "type": "event"
    },
    {
      "anonymous": false,
      "inputs": [
        {
          "indexed": true,
          "name": "removedAdmin",
          "type": "address"
        },
        {
          "indexed": true,
          "name": "removedBy",
          "type": "address"
        }
      ],
      "name": "AdminRemoved",
      "type": "event"
    },
    {
      "anonymous": false,
      "inputs": [
        {
          "indexed": true,
          "name": "previousOwner",
          "type": "address"
        },
        {
          "indexed": true,
          "name": "newOwner",
          "type": "address"
        }
      ],
      "name": "OwnershipTransferred",
      "type": "event"
    },
    {
      "constant": false,
      "inputs": [
        {
          "name": "salt",
          "type": "bytes32"
        },
        {
          "name": "_owners",
          "type": "address[]"
        },
        {
          "name": "_requiredSignatures",
          "type": "uint256"
        },
        {
          "name": "chainId",
          "type": "uint256"
        }
      ],
      "name": "createLightSig",
      "outputs": [
        {
          "name": "",
          "type": "address"
        }
      ],
      "payable": false,
      "stateMutability": "nonpayable",
      "type": "function"
    }
  ],
  "bytecode": "0x608060405234801561001057600080fd5b50336000806101000a81548173ffffffffffffffffffffffffffffffffffffffff021916908373ffffffffffffffffffffffffffffffffffffffff1602179055506000809054906101000a900473ffffffffffffffffffffffffffffffffffffffff1673ffffffffffffffffffffffffffffffffffffffff16600073ffffffffffffffffffffffffffffffffffffffff167f8be0079c531659141344cd1fd0a4f28419497f9722a3daafe3b4186f6b6457e060405160405180910390a36100e0336100e560201b6107831760201c565b610319565b6100f36102c260201b60201c565b610165576040517f08c379a00000000000000000000000000000000000000000000000000000000081526004018080602001828103825260208152602001807f4f776e61626c653a2063616c6c6572206973206e6f7420746865206f776e657281525060200191505060405180910390fd5b60001515600160008373ffffffffffffffffffffffffffffffffffffffff1673ffffffffffffffffffffffffffffffffffffffff16815260200190815260200160002060009054906101000a900460ff1615151461020e576040517f08c379a00000000000000000000000000000000000000000000000000000000081526004018080602001828103825260358152602001806124846035913960400191505060405180910390fd5b60018060008373ffffffffffffffffffffffffffffffffffffffff1673ffffffffffffffffffffffffffffffffffffffff16815260200190815260200160002060006101000a81548160ff0219169083151502179055503373ffffffffffffffffffffffffffffffffffffffff168173ffffffffffffffffffffffffffffffffffffffff167fbf3f493c772c8c283fd124432c2d0f539ab343faa04258fe88e52912d36b102b60405160405180910390a350565b60008060009054906101000a900473ffffffffffffffffffffffffffffffffffffffff1673ffffffffffffffffffffffffffffffffffffffff163373ffffffffffffffffffffffffffffffffffffffff1614905090565b61215c806103286000396000f3fe608060405234801561001057600080fd5b50600436106100935760003560e01c8063715018a611610066578063715018a61461029257806376be15851461029c5780638da5cb5b146102f85780638f32d59b14610342578063f2fde38b1461036457610093565b80630a2eb301146100985780631785f53c146100f45780633f770d6914610138578063704802751461024e575b600080fd5b6100da600480360360208110156100ae57600080fd5b81019080803573ffffffffffffffffffffffffffffffffffffffff1690602001909291905050506103a8565b604051808215151515815260200191505060405180910390f35b6101366004803603602081101561010a57600080fd5b81019080803573ffffffffffffffffffffffffffffffffffffffff1690602001909291905050506103fe565b005b61020c6004803603608081101561014e57600080fd5b81019080803590602001909291908035906020019064010000000081111561017557600080fd5b82018360208201111561018757600080fd5b803590602001918460208302840111640100000000831117156101a957600080fd5b919080806020026020016040519081016040528093929190818152602001838360200280828437600081840152601f19601f82011690508083019250505050505050919291929080359060200190929190803590602001909291905050506105d6565b604051808273ffffffffffffffffffffffffffffffffffffffff1673ffffffffffffffffffffffffffffffffffffffff16815260200191505060405180910390f35b6102906004803603602081101561026457600080fd5b81019080803573ffffffffffffffffffffffffffffffffffffffff169060200190929190505050610783565b005b61029a61095a565b005b6102de600480360360208110156102b257600080fd5b81019080803573ffffffffffffffffffffffffffffffffffffffff169060200190929190505050610a93565b604051808215151515815260200191505060405180910390f35b610300610ab3565b604051808273ffffffffffffffffffffffffffffffffffffffff1673ffffffffffffffffffffffffffffffffffffffff16815260200191505060405180910390f35b61034a610adc565b604051808215151515815260200191505060405180910390f35b6103a66004803603602081101561037a57600080fd5b81019080803573ffffffffffffffffffffffffffffffffffffffff169060200190929190505050610b33565b005b6000600160008373ffffffffffffffffffffffffffffffffffffffff1673ffffffffffffffffffffffffffffffffffffffff16815260200190815260200160002060009054906101000a900460ff169050919050565b610406610adc565b610478576040517f08c379a00000000000000000000000000000000000000000000000000000000081526004018080602001828103825260208152602001807f4f776e61626c653a2063616c6c6572206973206e6f7420746865206f776e657281525060200191505060405180910390fd5b60011515600160008373ffffffffffffffffffffffffffffffffffffffff1673ffffffffffffffffffffffffffffffffffffffff16815260200190815260200160002060009054906101000a900460ff16151514610521576040517f08c379a000000000000000000000000000000000000000000000000000000000815260040180806020018281038252603d815260200180612097603d913960400191505060405180910390fd5b6000600160008373ffffffffffffffffffffffffffffffffffffffff1673ffffffffffffffffffffffffffffffffffffffff16815260200190815260200160002060006101000a81548160ff0219169083151502179055503373ffffffffffffffffffffffffffffffffffffffff168173ffffffffffffffffffffffffffffffffffffffff167fdb9d5d31320daf5bc7181d565b6da4d12e30f0f4d5aa324a992426c14a1d19ce60405160405180910390a350565b60006105e1336103a8565b610636576040517f08c379a00000000000000000000000000000000000000000000000000000000081526004018080602001828103825260288152602001806120d46028913960400191505060405180910390fd5b600060606040518060200161064a90610cfd565b6020820181038252601f19601f820116604052509050868151602083016000f59150813b61067757600080fd5b8173ffffffffffffffffffffffffffffffffffffffff1663ce7e8fcf8787876040518463ffffffff1660e01b81526004018080602001848152602001838152602001828103825285818151815260200191508051906020019060200280838360005b838110156106f45780820151818401526020810190506106d9565b50505050905001945050505050600060405180830381600087803b15801561071b57600080fd5b505af115801561072f573d6000803e3d6000fd5b505050508173ffffffffffffffffffffffffffffffffffffffff167ff40fcec21964ffb566044d083b4073f29f7f7929110ea19e1b3ebe375d89055e60405160405180910390a28192505050949350505050565b61078b610adc565b6107fd576040517f08c379a00000000000000000000000000000000000000000000000000000000081526004018080602001828103825260208152602001807f4f776e61626c653a2063616c6c6572206973206e6f7420746865206f776e657281525060200191505060405180910390fd5b60001515600160008373ffffffffffffffffffffffffffffffffffffffff1673ffffffffffffffffffffffffffffffffffffffff16815260200190815260200160002060009054906101000a900460ff161515146108a6576040517f08c379a00000000000000000000000000000000000000000000000000000000081526004018080602001828103825260358152602001806120fc6035913960400191505060405180910390fd5b60018060008373ffffffffffffffffffffffffffffffffffffffff1673ffffffffffffffffffffffffffffffffffffffff16815260200190815260200160002060006101000a81548160ff0219169083151502179055503373ffffffffffffffffffffffffffffffffffffffff168173ffffffffffffffffffffffffffffffffffffffff167fbf3f493c772c8c283fd124432c2d0f539ab343faa04258fe88e52912d36b102b60405160405180910390a350565b610962610adc565b6109d4576040517f08c379a00000000000000000000000000000000000000000000000000000000081526004018080602001828103825260208152602001807f4f776e61626c653a2063616c6c6572206973206e6f7420746865206f776e657281525060200191505060405180910390fd5b600073ffffffffffffffffffffffffffffffffffffffff166000809054906101000a900473ffffffffffffffffffffffffffffffffffffffff1673ffffffffffffffffffffffffffffffffffffffff167f8be0079c531659141344cd1fd0a4f28419497f9722a3daafe3b4186f6b6457e060405160405180910390a360008060006101000a81548173ffffffffffffffffffffffffffffffffffffffff021916908373ffffffffffffffffffffffffffffffffffffffff160217905550565b60016020528060005260406000206000915054906101000a900460ff1681565b60008060009054906101000a900473ffffffffffffffffffffffffffffffffffffffff16905090565b60008060009054906101000a900473ffffffffffffffffffffffffffffffffffffffff1673ffffffffffffffffffffffffffffffffffffffff163373ffffffffffffffffffffffffffffffffffffffff1614905090565b610b3b610adc565b610bad576040517f08c379a00000000000000000000000000000000000000000000000000000000081526004018080602001828103825260208152602001807f4f776e61626c653a2063616c6c6572206973206e6f7420746865206f776e657281525060200191505060405180910390fd5b610bb681610bb9565b50565b600073ffffffffffffffffffffffffffffffffffffffff168173ffffffffffffffffffffffffffffffffffffffff161415610c3f576040517f08c379a00000000000000000000000000000000000000000000000000000000081526004018080602001828103825260268152602001806120716026913960400191505060405180910390fd5b8073ffffffffffffffffffffffffffffffffffffffff166000809054906101000a900473ffffffffffffffffffffffffffffffffffffffff1673ffffffffffffffffffffffffffffffffffffffff167f8be0079c531659141344cd1fd0a4f28419497f9722a3daafe3b4186f6b6457e060405160405180910390a3806000806101000a81548173ffffffffffffffffffffffffffffffffffffffff021916908373ffffffffffffffffffffffffffffffffffffffff16021790555050565b61136680610d0b8339019056fe6080604052600060025560006003556000600560006101000a81548160ff02191690831515021790555034801561003557600080fd5b50611321806100456000396000f3fe6080604052600436106100555760003560e01c8063025e7c27146100a557806316636745146101205780633644e515146103e65780638d06804314610411578063affed0e01461043c578063ce7e8fcf14610467575b3373ffffffffffffffffffffffffffffffffffffffff167fe1fffcc4923d04b559f4d29a8bfc6cda04eb5b0d3c460751c2402c5c5cc9109c346040518082815260200191505060405180910390a2005b3480156100b157600080fd5b506100de600480360360208110156100c857600080fd5b8101908080359060200190929190505050610540565b604051808273ffffffffffffffffffffffffffffffffffffffff1673ffffffffffffffffffffffffffffffffffffffff16815260200191505060405180910390f35b34801561012c57600080fd5b506103cc600480360360c081101561014357600080fd5b810190808035906020019064010000000081111561016057600080fd5b82018360208201111561017257600080fd5b8035906020019184602083028401116401000000008311171561019457600080fd5b919080806020026020016040519081016040528093929190818152602001838360200280828437600081840152601f19601f820116905080830192505050505050509192919290803590602001906401000000008111156101f457600080fd5b82018360208201111561020657600080fd5b8035906020019184602083028401116401000000008311171561022857600080fd5b919080806020026020016040519081016040528093929190818152602001838360200280828437600081840152601f19601f8201169050808301925050505050505091929192908035906020019064010000000081111561028857600080fd5b82018360208201111561029a57600080fd5b803590602001918460208302840111640100000000831117156102bc57600080fd5b919080806020026020016040519081016040528093929190818152602001838360200280828437600081840152601f19601f820116905080830192505050505050509192919290803573ffffffffffffffffffffffffffffffffffffffff169060200190929190803590602001909291908035906020019064010000000081111561034657600080fd5b82018360208201111561035857600080fd5b8035906020019184600183028401116401000000008311171561037a57600080fd5b91908080601f016020809104026020016040519081016040528093929190818152602001838380828437600081840152601f19601f82011690508083019250505050505050919291929050505061057c565b604051808215151515815260200191505060405180910390f35b3480156103f257600080fd5b506103fb610cc7565b6040518082815260200191505060405180910390f35b34801561041d57600080fd5b50610426610ccd565b6040518082815260200191505060405180910390f35b34801561044857600080fd5b50610451610cd3565b6040518082815260200191505060405180910390f35b34801561047357600080fd5b5061053e6004803603606081101561048a57600080fd5b81019080803590602001906401000000008111156104a757600080fd5b8201836020820111156104b957600080fd5b803590602001918460208302840111640100000000831117156104db57600080fd5b919080806020026020016040519081016040528093929190818152602001838360200280828437600081840152601f19601f8201169050808301925050505050505091929192908035906020019092919080359060200190929190505050610cd9565b005b6000818154811061054d57fe5b906000526020600020016000915054906101000a900473ffffffffffffffffffffffffffffffffffffffff1681565b6000600560009054906101000a900460ff16610600576040517f08c379a000000000000000000000000000000000000000000000000000000000815260040180806020018281038252601f8152602001807f496e697469616c697a6174696f6e206d75737420626520636f6d706c6574650081525060200191505060405180910390fd5b84518651148015610612575086518651145b610684576040517f08c379a000000000000000000000000000000000000000000000000000000000815260040180806020018281038252601f8152602001807f53696720617272617973206e6f74207468652073616d65206c656e677468730081525060200191505060405180910390fd5b6003548651146106df576040517f08c379a000000000000000000000000000000000000000000000000000000000815260040180806020018281038252602a81526020018061122e602a913960400191505060405180910390fd5b60007febbfa7b286e52d30a13889efa8ca90a696b0e6ec0936c8688c357c7d2bdd043060001b85858580519060200120600254604051602001808681526020018573ffffffffffffffffffffffffffffffffffffffff1673ffffffffffffffffffffffffffffffffffffffff1681526020018481526020018381526020018281526020019550505050505060405160208183030381529060405280519060200120905060006004548260405160200180807f19010000000000000000000000000000000000000000000000000000000000008152506002018381526020018281526020019250505060405160208183030381529060405280519060200120905060606040518060400160405280601c81526020017f19457468657265756d205369676e6564204d6573736167653a0a3332000000008152509050600081836040516020018083805190602001908083835b602083106108535780518252602082019150602081019050602083039250610830565b6001836020036101000a03801982511681845116808217855250505050505090500182815260200192505050604051602081830303815290604052805190602001209050600080905060008090505b600354811015610a665760006108f3848f84815181106108be57fe5b60200260200101518f85815181106108d257fe5b60200260200101518f86815181106108e657fe5b6020026020010151611092565b9050600160008273ffffffffffffffffffffffffffffffffffffffff1673ffffffffffffffffffffffffffffffffffffffff16815260200190815260200160002060009054906101000a900460ff166109b4576040517f08c379a000000000000000000000000000000000000000000000000000000000815260040180806020018281038252601f8152602001807f5369676e6174757265206d7573742062652066726f6d20616e206f776e65720081525060200191505060405180910390fd5b8273ffffffffffffffffffffffffffffffffffffffff168173ffffffffffffffffffffffffffffffffffffffff1611610a55576040517f08c379a00000000000000000000000000000000000000000000000000000000081526004018080602001828103825260188152602001807f5369676e6174757265206d75737420626520756e69717565000000000000000081525060200191505060405180910390fd5b8092505080806001019150506108a2565b5060016002540160028190555060008973ffffffffffffffffffffffffffffffffffffffff1689896040518082805190602001908083835b60208310610ac15780518252602082019150602081019050602083039250610a9e565b6001836020036101000a03801982511681845116808217855250505050505090500191505060006040518083038185875af1925050503d8060008114610b23576040519150601f19603f3d011682016040523d82523d6000602084013e610b28565b606091505b505090508015610bf5578973ffffffffffffffffffffffffffffffffffffffff166002547fedde58bc1eda2dcabe4c2ecfa4fc29862b663603e92d813f4fef217f0dd3597c8b8b6040518083815260200180602001828103825283818151815260200191508051906020019080838360005b83811015610bb5578082015181840152602081019050610b9a565b50505050905090810190601f168015610be25780820380516001836020036101000a031916815260200191505b50935050505060405180910390a3610cb4565b8973ffffffffffffffffffffffffffffffffffffffff166002547f87a63d04721a887e5a9303fb7950409e32f976f0e09bda2790353b5846a28d358b8b6040518083815260200180602001828103825283818151815260200191508051906020019080838360005b83811015610c78578082015181840152602081019050610c5d565b50505050905090810190601f168015610ca55780820380516001836020036101000a031916815260200191505b50935050505060405180910390a35b8096505050505050509695505050505050565b60045481565b60035481565b60025481565b600560009054906101000a900460ff1615610d3f576040517f08c379a00000000000000000000000000000000000000000000000000000000081526004018080602001828103825260228152602001806112586022913960400191505060405180910390fd5b6001600560006101000a81548160ff02191690831515021790555060008351118015610d6d5750600a835111155b610dc2576040517f08c379a00000000000000000000000000000000000000000000000000000000081526004018080602001828103825260228152602001806112a56022913960400191505060405180910390fd5b600082118015610dd3575082518211155b610e28576040517f08c379a000000000000000000000000000000000000000000000000000000000815260040180806020018281038252602f8152602001806112c7602f913960400191505060405180910390fd5b600080905060008090505b8451811015610f60578173ffffffffffffffffffffffffffffffffffffffff16858281518110610e5f57fe5b602002602001015173ffffffffffffffffffffffffffffffffffffffff1611610ed3576040517f08c379a000000000000000000000000000000000000000000000000000000000815260040180806020018281038252602b81526020018061127a602b913960400191505060405180910390fd5b6001806000878481518110610ee457fe5b602002602001015173ffffffffffffffffffffffffffffffffffffffff1673ffffffffffffffffffffffffffffffffffffffff16815260200190815260200160002060006101000a81548160ff021916908315150217905550848181518110610f4957fe5b602002602001015191508080600101915050610e33565b508360009080519060200190610f77929190611160565b50826003819055507fd87cd6ef79d4e2b95e15ce8abf732db51ec771f1ca2edccf22a46c729ac5647260001b7fe0f1e1c99009e212fa1e207fccef2ee9432c52bbf5ef25688885ea0cce69531d60001b7fc89efdaa54c0f20c7adf612882df0950f5a951637e0307cdcb4c672f298b8bc660001b84307f251543af6a222378665a76fe38dbceae4871a070b7fdaf5c6c30cf758dc33cc060001b604051602001808781526020018681526020018581526020018481526020018373ffffffffffffffffffffffffffffffffffffffff1673ffffffffffffffffffffffffffffffffffffffff16815260200182815260200196505050505050506040516020818303038152906040528051906020012060048190555050505050565b60007f7fffffffffffffffffffffffffffffff5d576e7357a4501ddfe92f46681b20a08260001c11156110c85760009050611158565b601b8460ff16141580156110e05750601c8460ff1614155b156110ee5760009050611158565b60018585858560405160008152602001604052604051808581526020018460ff1660ff1681526020018381526020018281526020019450505050506020604051602081039080840390855afa15801561114b573d6000803e3d6000fd5b5050506020604051035190505b949350505050565b8280548282559060005260206000209081019282156111d9579160200282015b828111156111d85782518260006101000a81548173ffffffffffffffffffffffffffffffffffffffff021916908373ffffffffffffffffffffffffffffffffffffffff16021790555091602001919060010190611180565b5b5090506111e691906111ea565b5090565b61122a91905b8082111561122657600081816101000a81549073ffffffffffffffffffffffffffffffffffffffff0219169055506001016111f0565b5090565b9056fe5369676e617475726573206c697374206973206e6f7420746865206578706563746564206c656e677468496e69742066756e6374696f6e2063616e206f6e6c792062652072756e206f6e63654f776e657220616464726573736573206d75737420626520756e6971756520616e6420696e206f726465724f776e657273204c697374206d696e206973203120616e64206d61782069732031305265717569726564207369676e617475726573206d75737420626520696e207468652070726f7065722072616e6765a165627a7a72305820f014e95ab513a81d96ff6687574cd7b821ba621f7af30b57d8bb3e8aa195e86500294f776e61626c653a206e6577206f776e657220697320746865207a65726f20616464726573734163636f756e7420746f2062652072656d6f7665642066726f6d2061646d696e206c697374206973206e6f7420616c726561647920616e2061646d696e43616c6c696e67206163636f756e74206973206e6f7420616e2061646d696e6973747261746f722e4163636f756e7420746f20626520616464656420746f2061646d696e206c69737420697320616c726561647920616e2061646d696ea165627a7a7230582092f83656ea97b0e096611cb37694b0cc3a503322fd0cbaf2d869122553ddee1500294163636f756e7420746f20626520616464656420746f2061646d696e206c69737420697320616c726561647920616e2061646d696e",
  "source": "pragma solidity 0.5.8;\n\nimport \"./LightSig.sol\";\nimport \"./Administratable.sol\";\n\n/**\n * LightSig Factory creates new instances of the multisig contract and triggers an event\n * for listeners to see the new contract.\n */\ncontract LightSigFactory is Administratable {\n\n  // Event to track deployments\n  event Deployed(address indexed deployedAddress);\n\n  // Constructor for the factory\n  constructor() public {\n    // Add the deployer as an admin by default\n    Administratable.addAdmin(msg.sender);\n  }\n\n  /**\n   * Function called by external addresses to create a new multisig contract\n   * Caller must be whitelisted as an admin\n   */\n  function createLightSig(bytes32 salt, address[] memory _owners, uint _requiredSignatures, uint chainId)\n    public onlyAdministrator returns (address) {\n    // Track the address for the new contract\n\t\taddress payable deployedAddress;\n\n\t\t// Get the creation code from the payment handler\n    bytes memory code = type(LightSig).creationCode;\n\n\t\t// Drop into assembly to deploy with create2\n    assembly {\n      deployedAddress := create2(0, add(code, 0x20), mload(code), salt)\n      if iszero(extcodesize(deployedAddress)) { revert(0, 0) }\n    }\n\n\t\t// Initialize the contract with this master's address\n    LightSig(deployedAddress).init(_owners, _requiredSignatures, chainId);\n\n    // Trigger the event for any listeners\n    emit Deployed(deployedAddress);\n\n    // Return address back to caller if applicable\n    return deployedAddress;\n  }\n}",
  "sourcePath": "/Users/james/Source/tokensoft/LightSig/contracts/LightSigFactory.sol",
  "compiler": {
    "name": "solc",
    "version": "0.5.8+commit.23d335f2.Emscripten.clang"
  },
  "schemaVersion": "3.0.11",
  "updatedAt": "2019-11-04T23:44:05.270Z",
  "devdoc": {
    "methods": {
      "isOwner()": {
        "details": "Returns true if the caller is the current owner."
      },
      "owner()": {
        "details": "Returns the address of the current owner."
      },
      "renounceOwnership()": {
        "details": "Leaves the contract without owner. It will not be possible to call `onlyOwner` functions anymore. Can only be called by the current owner.     * > Note: Renouncing ownership will leave the contract without an owner, thereby removing any functionality that is only available to the owner."
      },
      "transferOwnership(address)": {
        "details": "Transfers ownership of the contract to a new account (`newOwner`). Can only be called by the current owner."
      }
    }
  },
  "userdoc": {
    "methods": {
      "addAdmin(address)": {
        "notice": "Add an admin to the list.  This should only be callable by the owner of the contract."
      },
      "createLightSig(bytes32,address[],uint256,uint256)": {
        "notice": "Function called by external addresses to create a new multisig contract Caller must be whitelisted as an admin"
      },
      "isAdministrator(address)": {
        "notice": "Determine if the message sender is in the administrators list."
      },
      "removeAdmin(address)": {
        "notice": "Remove an admin from the list.  This should only be callable by the owner of the contract."
      }
    },
    "notice": "LightSig Factory creates new instances of the multisig contract and triggers an event for listeners to see the new contract."
  }
}