{
  "contractName": "LiteSig",
  "abi": [
    {
      "anonymous": false,
      "inputs": [
        {
          "indexed": true,
          "internalType": "address",
          "name": "source",
          "type": "address"
        },
        {
          "indexed": false,
          "internalType": "uint256",
          "name": "value",
          "type": "uint256"
        }
      ],
      "name": "Deposit",
      "type": "event"
    },
    {
      "anonymous": false,
      "inputs": [
        {
          "indexed": true,
          "internalType": "uint256",
          "name": "transactionId",
          "type": "uint256"
        },
        {
          "indexed": true,
          "internalType": "address",
          "name": "destination",
          "type": "address"
        },
        {
          "indexed": false,
          "internalType": "uint256",
          "name": "value",
          "type": "uint256"
        },
        {
          "indexed": false,
          "internalType": "bytes",
          "name": "data",
          "type": "bytes"
        }
      ],
      "name": "Execution",
      "type": "event"
    },
    {
      "anonymous": false,
      "inputs": [
        {
          "indexed": true,
          "internalType": "uint256",
          "name": "transactionId",
          "type": "uint256"
        },
        {
          "indexed": true,
          "internalType": "address",
          "name": "destination",
          "type": "address"
        },
        {
          "indexed": false,
          "internalType": "uint256",
          "name": "value",
          "type": "uint256"
        },
        {
          "indexed": false,
          "internalType": "bytes",
          "name": "data",
          "type": "bytes"
        }
      ],
      "name": "ExecutionFailure",
      "type": "event"
    },
    {
      "anonymous": false,
      "inputs": [
        {
          "indexed": true,
          "internalType": "address",
          "name": "owner",
          "type": "address"
        }
      ],
      "name": "RecoverCanceled",
      "type": "event"
    },
    {
      "anonymous": false,
      "inputs": [
        {
          "indexed": true,
          "internalType": "address",
          "name": "owner",
          "type": "address"
        },
        {
          "indexed": false,
          "internalType": "address[]",
          "name": "newOwners",
          "type": "address[]"
        }
      ],
      "name": "RecoverFinalized",
      "type": "event"
    },
    {
      "anonymous": false,
      "inputs": [
        {
          "indexed": true,
          "internalType": "address",
          "name": "owner",
          "type": "address"
        },
        {
          "indexed": false,
          "internalType": "address[]",
          "name": "newOwners",
          "type": "address[]"
        }
      ],
      "name": "RecoverStarted",
      "type": "event"
    },
    {
      "payable": true,
      "stateMutability": "payable",
      "type": "fallback"
    },
    {
      "constant": true,
      "inputs": [],
      "name": "DOMAIN_SEPARATOR",
      "outputs": [
        {
          "internalType": "bytes32",
          "name": "",
          "type": "bytes32"
        }
      ],
      "payable": false,
      "stateMutability": "view",
      "type": "function"
    },
    {
      "constant": true,
      "inputs": [],
      "name": "inRecoveryMode",
      "outputs": [
        {
          "internalType": "bool",
          "name": "",
          "type": "bool"
        }
      ],
      "payable": false,
      "stateMutability": "view",
      "type": "function"
    },
    {
      "constant": true,
      "inputs": [],
      "name": "nonce",
      "outputs": [
        {
          "internalType": "uint256",
          "name": "",
          "type": "uint256"
        }
      ],
      "payable": false,
      "stateMutability": "view",
      "type": "function"
    },
    {
      "constant": true,
      "inputs": [
        {
          "internalType": "uint256",
          "name": "",
          "type": "uint256"
        }
      ],
      "name": "owners",
      "outputs": [
        {
          "internalType": "address",
          "name": "",
          "type": "address"
        }
      ],
      "payable": false,
      "stateMutability": "view",
      "type": "function"
    },
    {
      "constant": true,
      "inputs": [
        {
          "internalType": "uint256",
          "name": "",
          "type": "uint256"
        }
      ],
      "name": "recoveryOwners",
      "outputs": [
        {
          "internalType": "address",
          "name": "",
          "type": "address"
        }
      ],
      "payable": false,
      "stateMutability": "view",
      "type": "function"
    },
    {
      "constant": true,
      "inputs": [],
      "name": "recoveryTimestamp",
      "outputs": [
        {
          "internalType": "uint256",
          "name": "",
          "type": "uint256"
        }
      ],
      "payable": false,
      "stateMutability": "view",
      "type": "function"
    },
    {
      "constant": true,
      "inputs": [],
      "name": "requiredSignatures",
      "outputs": [
        {
          "internalType": "uint256",
          "name": "",
          "type": "uint256"
        }
      ],
      "payable": false,
      "stateMutability": "view",
      "type": "function"
    },
    {
      "constant": false,
      "inputs": [
        {
          "internalType": "address[]",
          "name": "_owners",
          "type": "address[]"
        },
        {
          "internalType": "uint256",
          "name": "_requiredSignatures",
          "type": "uint256"
        },
        {
          "internalType": "uint256",
          "name": "chainId",
          "type": "uint256"
        }
      ],
      "name": "init",
      "outputs": [],
      "payable": false,
      "stateMutability": "nonpayable",
      "type": "function"
    },
    {
      "constant": false,
      "inputs": [
        {
          "internalType": "uint8[]",
          "name": "sigV",
          "type": "uint8[]"
        },
        {
          "internalType": "bytes32[]",
          "name": "sigR",
          "type": "bytes32[]"
        },
        {
          "internalType": "bytes32[]",
          "name": "sigS",
          "type": "bytes32[]"
        },
        {
          "internalType": "address",
          "name": "destination",
          "type": "address"
        },
        {
          "internalType": "uint256",
          "name": "value",
          "type": "uint256"
        },
        {
          "internalType": "bytes",
          "name": "data",
          "type": "bytes"
        }
      ],
      "name": "submit",
      "outputs": [
        {
          "internalType": "bool",
          "name": "",
          "type": "bool"
        }
      ],
      "payable": false,
      "stateMutability": "nonpayable",
      "type": "function"
    },
    {
      "constant": false,
      "inputs": [
        {
          "internalType": "address[]",
          "name": "_recoveryOwners",
          "type": "address[]"
        }
      ],
      "name": "startRecover",
      "outputs": [],
      "payable": false,
      "stateMutability": "nonpayable",
      "type": "function"
    },
    {
      "constant": false,
      "inputs": [],
      "name": "cancelRecover",
      "outputs": [],
      "payable": false,
      "stateMutability": "nonpayable",
      "type": "function"
    },
    {
      "constant": false,
      "inputs": [],
      "name": "finalizeRecover",
      "outputs": [],
      "payable": false,
      "stateMutability": "nonpayable",
      "type": "function"
    }
  ],
  "bytecode": "0x6080604052600060025560006003556000600560006101000a81548160ff0219169083151502179055506000600560016101000a81548160ff021916908315150217905550600060065534801561005557600080fd5b50611eb1806100656000396000f3fe6080604052600436106100a75760003560e01c806358a13bf71161006457806358a13bf71461056a57806368c50760146105e55780638d068043146105fc578063affed0e014610627578063b35056b814610652578063ce7e8fcf14610681576100a7565b8063025e7c27146100f757806313170d0714610172578063140fe52d1461019d578063166367451461026257806327803ad6146105285780633644e5151461053f575b3373ffffffffffffffffffffffffffffffffffffffff167fe1fffcc4923d04b559f4d29a8bfc6cda04eb5b0d3c460751c2402c5c5cc9109c346040518082815260200191505060405180910390a2005b34801561010357600080fd5b506101306004803603602081101561011a57600080fd5b810190808035906020019092919050505061075a565b604051808273ffffffffffffffffffffffffffffffffffffffff1673ffffffffffffffffffffffffffffffffffffffff16815260200191505060405180910390f35b34801561017e57600080fd5b50610187610796565b6040518082815260200191505060405180910390f35b3480156101a957600080fd5b50610260600480360360208110156101c057600080fd5b81019080803590602001906401000000008111156101dd57600080fd5b8201836020820111156101ef57600080fd5b8035906020019184602083028401116401000000008311171561021157600080fd5b919080806020026020016040519081016040528093929190818152602001838360200280828437600081840152601f19601f82011690508083019250505050505050919291929050505061079c565b005b34801561026e57600080fd5b5061050e600480360360c081101561028557600080fd5b81019080803590602001906401000000008111156102a257600080fd5b8201836020820111156102b457600080fd5b803590602001918460208302840111640100000000831117156102d657600080fd5b919080806020026020016040519081016040528093929190818152602001838360200280828437600081840152601f19601f8201169050808301925050505050505091929192908035906020019064010000000081111561033657600080fd5b82018360208201111561034857600080fd5b8035906020019184602083028401116401000000008311171561036a57600080fd5b919080806020026020016040519081016040528093929190818152602001838360200280828437600081840152601f19601f820116905080830192505050505050509192919290803590602001906401000000008111156103ca57600080fd5b8201836020820111156103dc57600080fd5b803590602001918460208302840111640100000000831117156103fe57600080fd5b919080806020026020016040519081016040528093929190818152602001838360200280828437600081840152601f19601f820116905080830192505050505050509192919290803573ffffffffffffffffffffffffffffffffffffffff169060200190929190803590602001909291908035906020019064010000000081111561048857600080fd5b82018360208201111561049a57600080fd5b803590602001918460018302840111640100000000831117156104bc57600080fd5b91908080601f016020809104026020016040519081016040528093929190818152602001838380828437600081840152601f19601f820116905080830192505050505050509192919290505050610a8c565b604051808215151515815260200191505060405180910390f35b34801561053457600080fd5b5061053d61124b565b005b34801561054b57600080fd5b50610554611407565b6040518082815260200191505060405180910390f35b34801561057657600080fd5b506105a36004803603602081101561058d57600080fd5b810190808035906020019092919050505061140d565b604051808273ffffffffffffffffffffffffffffffffffffffff1673ffffffffffffffffffffffffffffffffffffffff16815260200191505060405180910390f35b3480156105f157600080fd5b506105fa611449565b005b34801561060857600080fd5b506106116116f7565b6040518082815260200191505060405180910390f35b34801561063357600080fd5b5061063c6116fd565b6040518082815260200191505060405180910390f35b34801561065e57600080fd5b50610667611703565b604051808215151515815260200191505060405180910390f35b34801561068d57600080fd5b50610758600480360360608110156106a457600080fd5b81019080803590602001906401000000008111156106c157600080fd5b8201836020820111156106d357600080fd5b803590602001918460208302840111640100000000831117156106f557600080fd5b919080806020026020016040519081016040528093929190818152602001838360200280828437600081840152601f19601f8201169050808301925050505050505091929192908035906020019092919080359060200190929190505050611716565b005b6000818154811061076757fe5b906000526020600020016000915054906101000a900473ffffffffffffffffffffffffffffffffffffffff1681565b60065481565b600080905060008090505b6000805490508160ff16101561083b573373ffffffffffffffffffffffffffffffffffffffff1660008260ff16815481106107de57fe5b9060005260206000200160009054906101000a900473ffffffffffffffffffffffffffffffffffffffff1673ffffffffffffffffffffffffffffffffffffffff16141561082e576001915061083b565b80806001019150506107a7565b5080610892576040517f08c379a0000000000000000000000000000000000000000000000000000000008152600401808060200182810382526028815260200180611d896028913960400191505060405180910390fd5b8151600080549050146108f0576040517f08c379a000000000000000000000000000000000000000000000000000000000815260040180806020018281038252603c815260200180611ddd603c913960400191505060405180910390fd5b600080905060008090505b83518110156109be578173ffffffffffffffffffffffffffffffffffffffff1684828151811061092757fe5b602002602001015173ffffffffffffffffffffffffffffffffffffffff161161099b576040517f08c379a000000000000000000000000000000000000000000000000000000000815260040180806020018281038252602b815260200180611d3c602b913960400191505060405180910390fd5b8381815181106109a757fe5b6020026020010151915080806001019150506108fb565b5082600790805190602001906109d5929190611b9d565b50426006819055506001600560016101000a81548160ff0219169083151502179055503373ffffffffffffffffffffffffffffffffffffffff167fc7b0b906f2617e620c490371a39e2af2eaf12616ddfd7bd51445b7eefd6fe913846040518080602001828103825283818151815260200191508051906020019060200280838360005b83811015610a74578082015181840152602081019050610a59565b505050509050019250505060405180910390a2505050565b6000600560009054906101000a900460ff16610b10576040517f08c379a000000000000000000000000000000000000000000000000000000000815260040180806020018281038252601f8152602001807f496e697469616c697a6174696f6e206d75737420626520636f6d706c6574650081525060200191505060405180910390fd5b84518651148015610b22575086518651145b610b94576040517f08c379a000000000000000000000000000000000000000000000000000000000815260040180806020018281038252601f8152602001807f53696720617272617973206e6f74207468652073616d65206c656e677468730081525060200191505060405180910390fd5b600354865114610bef576040517f08c379a000000000000000000000000000000000000000000000000000000000815260040180806020018281038252602a815260200180611cbd602a913960400191505060405180910390fd5b60007fe7beff35c01d1bb188c46fbae3d80f308d2600ba612c687a3e61446e0dffda0b60001b85858580519060200120600254604051602001808681526020018573ffffffffffffffffffffffffffffffffffffffff1673ffffffffffffffffffffffffffffffffffffffff1681526020018481526020018381526020018281526020019550505050505060405160208183030381529060405280519060200120905060006004548260405160200180807f19010000000000000000000000000000000000000000000000000000000000008152506002018381526020018281526020019250505060405160208183030381529060405280519060200120905060606040518060400160405280601c81526020017f19457468657265756d205369676e6564204d6573736167653a0a3332000000008152509050600081836040516020018083805190602001908083835b60208310610d635780518252602082019150602081019050602083039250610d40565b6001836020036101000a03801982511681845116808217855250505050505090500182815260200192505050604051602081830303815290604052805190602001209050600080905060008090505b600354811015610f76576000610e03848f8481518110610dce57fe5b60200260200101518f8581518110610de257fe5b60200260200101518f8681518110610df657fe5b6020026020010151611acf565b9050600160008273ffffffffffffffffffffffffffffffffffffffff1673ffffffffffffffffffffffffffffffffffffffff16815260200190815260200160002060009054906101000a900460ff16610ec4576040517f08c379a000000000000000000000000000000000000000000000000000000000815260040180806020018281038252601f8152602001807f5369676e6174757265206d7573742062652066726f6d20616e206f776e65720081525060200191505060405180910390fd5b8273ffffffffffffffffffffffffffffffffffffffff168173ffffffffffffffffffffffffffffffffffffffff1611610f65576040517f08c379a00000000000000000000000000000000000000000000000000000000081526004018080602001828103825260188152602001807f5369676e6174757265206d75737420626520756e69717565000000000000000081525060200191505060405180910390fd5b809250508080600101915050610db2565b5060016002540160028190555060008973ffffffffffffffffffffffffffffffffffffffff1689896040518082805190602001908083835b60208310610fd15780518252602082019150602081019050602083039250610fae565b6001836020036101000a03801982511681845116808217855250505050505090500191505060006040518083038185875af1925050503d8060008114611033576040519150601f19603f3d011682016040523d82523d6000602084013e611038565b606091505b505090508015611105578973ffffffffffffffffffffffffffffffffffffffff166002547fedde58bc1eda2dcabe4c2ecfa4fc29862b663603e92d813f4fef217f0dd3597c8b8b6040518083815260200180602001828103825283818151815260200191508051906020019080838360005b838110156110c55780820151818401526020810190506110aa565b50505050905090810190601f1680156110f25780820380516001836020036101000a031916815260200191505b50935050505060405180910390a36111c4565b8973ffffffffffffffffffffffffffffffffffffffff166002547f87a63d04721a887e5a9303fb7950409e32f976f0e09bda2790353b5846a28d358b8b6040518083815260200180602001828103825283818151815260200191508051906020019080838360005b8381101561118857808201518184015260208101905061116d565b50505050905090810190601f1680156111b55780820380516001836020036101000a031916815260200191505b50935050505060405180910390a35b600560019054906101000a900460ff1615611238576000600560016101000a81548160ff0219169083151502179055503373ffffffffffffffffffffffffffffffffffffffff167f284a80a7abb37c8e19ea4d26f6004be2a2b69ef37aa23149e3ab837f72271a6960405160405180910390a25b8096505050505050509695505050505050565b600080905060008090505b6000805490508160ff1610156112ea573373ffffffffffffffffffffffffffffffffffffffff1660008260ff168154811061128d57fe5b9060005260206000200160009054906101000a900473ffffffffffffffffffffffffffffffffffffffff1673ffffffffffffffffffffffffffffffffffffffff1614156112dd57600191506112ea565b8080600101915050611256565b5080611341576040517f08c379a0000000000000000000000000000000000000000000000000000000008152600401808060200182810382526028815260200180611d896028913960400191505060405180910390fd5b600560019054906101000a900460ff166113a6576040517f08c379a000000000000000000000000000000000000000000000000000000000815260040180806020018281038252602c815260200180611db1602c913960400191505060405180910390fd5b6000600560016101000a81548160ff0219169083151502179055503373ffffffffffffffffffffffffffffffffffffffff167f284a80a7abb37c8e19ea4d26f6004be2a2b69ef37aa23149e3ab837f72271a6960405160405180910390a250565b60045481565b6007818154811061141a57fe5b906000526020600020016000915054906101000a900473ffffffffffffffffffffffffffffffffffffffff1681565b600080905060008090505b6000805490508160ff1610156114e8573373ffffffffffffffffffffffffffffffffffffffff1660008260ff168154811061148b57fe5b9060005260206000200160009054906101000a900473ffffffffffffffffffffffffffffffffffffffff1673ffffffffffffffffffffffffffffffffffffffff1614156114db57600191506114e8565b8080600101915050611454565b508061153f576040517f08c379a0000000000000000000000000000000000000000000000000000000008152600401808060200182810382526028815260200180611d896028913960400191505060405180910390fd5b600560019054906101000a900460ff166115a4576040517f08c379a0000000000000000000000000000000000000000000000000000000008152600401808060200182810382526035815260200180611e486035913960400191505060405180910390fd5b4262ed4e006006540110611603576040517f08c379a0000000000000000000000000000000000000000000000000000000008152600401808060200182810382526033815260200180611ce76033913960400191505060405180910390fd5b6000600560016101000a81548160ff02191690831515021790555060076000908054611630929190611c27565b503373ffffffffffffffffffffffffffffffffffffffff167fb49aa6f0d11caf6b57c275c92aceb857690e1e4ceadffca85f6a7679370b4e176007604051808060200182810382528381815481526020019150805480156116e657602002820191906000526020600020905b8160009054906101000a900473ffffffffffffffffffffffffffffffffffffffff1673ffffffffffffffffffffffffffffffffffffffff168152602001906001019080831161169c575b50509250505060405180910390a250565b60035481565b60025481565b600560019054906101000a900460ff1681565b600560009054906101000a900460ff161561177c576040517f08c379a0000000000000000000000000000000000000000000000000000000008152600401808060200182810382526022815260200180611d1a6022913960400191505060405180910390fd5b6001600560006101000a81548160ff021916908315150217905550600083511180156117aa5750600a835111155b6117ff576040517f08c379a0000000000000000000000000000000000000000000000000000000008152600401808060200182810382526022815260200180611d676022913960400191505060405180910390fd5b600082118015611810575082518211155b611865576040517f08c379a000000000000000000000000000000000000000000000000000000000815260040180806020018281038252602f815260200180611e19602f913960400191505060405180910390fd5b600080905060008090505b845181101561199d578173ffffffffffffffffffffffffffffffffffffffff1685828151811061189c57fe5b602002602001015173ffffffffffffffffffffffffffffffffffffffff1611611910576040517f08c379a000000000000000000000000000000000000000000000000000000000815260040180806020018281038252602b815260200180611d3c602b913960400191505060405180910390fd5b600180600087848151811061192157fe5b602002602001015173ffffffffffffffffffffffffffffffffffffffff1673ffffffffffffffffffffffffffffffffffffffff16815260200190815260200160002060006101000a81548160ff02191690831515021790555084818151811061198657fe5b602002602001015191508080600101915050611870565b5083600090805190602001906119b4929190611b9d565b50826003819055507fd87cd6ef79d4e2b95e15ce8abf732db51ec771f1ca2edccf22a46c729ac5647260001b7fe0f1e1c99009e212fa1e207fccef2ee9432c52bbf5ef25688885ea0cce69531d60001b7fc89efdaa54c0f20c7adf612882df0950f5a951637e0307cdcb4c672f298b8bc660001b84307f9c360831104e550f13ec032699c5f1d7f17190a31cdaf5c83945a04dfd319eea60001b604051602001808781526020018681526020018581526020018481526020018373ffffffffffffffffffffffffffffffffffffffff1673ffffffffffffffffffffffffffffffffffffffff16815260200182815260200196505050505050506040516020818303038152906040528051906020012060048190555050505050565b60007f7fffffffffffffffffffffffffffffff5d576e7357a4501ddfe92f46681b20a08260001c1115611b055760009050611b95565b601b8460ff1614158015611b1d5750601c8460ff1614155b15611b2b5760009050611b95565b60018585858560405160008152602001604052604051808581526020018460ff1660ff1681526020018381526020018281526020019450505050506020604051602081039080840390855afa158015611b88573d6000803e3d6000fd5b5050506020604051035190505b949350505050565b828054828255906000526020600020908101928215611c16579160200282015b82811115611c155782518260006101000a81548173ffffffffffffffffffffffffffffffffffffffff021916908373ffffffffffffffffffffffffffffffffffffffff16021790555091602001919060010190611bbd565b5b509050611c239190611c79565b5090565b828054828255906000526020600020908101928215611c685760005260206000209182015b82811115611c67578254825591600101919060010190611c4c565b5b509050611c759190611c79565b5090565b611cb991905b80821115611cb557600081816101000a81549073ffffffffffffffffffffffffffffffffffffffff021916905550600101611c7f565b5090565b9056fe5369676e617475726573206c697374206973206e6f7420746865206578706563746564206c656e6774683138302044617973206d7573742070617373206265666f7265207265636f766572792063616e20626520706572666f726d6564496e69742066756e6374696f6e2063616e206f6e6c792062652072756e206f6e63654f776e657220616464726573736573206d75737420626520756e6971756520616e6420696e206f726465724f776e657273204c697374206d696e206973203120616e64206d617820697320313043616c6c696e67206163636f756e74206973206e6f7420616e2061646d696e6973747261746f722e57616c6c6574206d75737420626520696e207265636f76657279206d6f646520746f2063616e63656c206974546865207265636f76657279206f776e657273206c656e677468206d757374206265207468652073616d652061732070726576696f7573206c6973745265717569726564207369676e617475726573206d75737420626520696e207468652070726f7065722072616e676557616c6c6574206d75737420626520696e207265636f76657279206d6f646520746f207472696767657220612066696e616c697a65a265627a7a72315820deb8162f1974056d965bd065e479548ae6e282d1a26120e58b9e1953dd1c744d64736f6c63430005100032",
  "source": "pragma solidity 0.5.16;\n\n/**\n * LiteSig is a lighter weight multisig based on https://github.com/christianlundkvist/simple-multisig\n * Owners aggregate signatures offline and then broadcast a transaction with the required number of signatures.\n * Unlike other multisigs, this is meant to have minimal administration functions and other features in order\n * to reduce the footprint and attack surface.\n */\ncontract LiteSig {\n\n    //  Events triggered for incoming and outgoing transactions\n    event Deposit(address indexed source, uint value);\n    event Execution(uint indexed transactionId, address indexed destination, uint value, bytes data);\n    event ExecutionFailure(uint indexed transactionId, address indexed destination, uint value, bytes data);\n\n    // Events for recovery feature\n    event RecoverStarted(address indexed owner, address[] newOwners);\n    event RecoverCanceled(address indexed owner);\n    event RecoverFinalized(address indexed owner, address[] newOwners);\n\n    // List of owner addresses - for external readers convenience only\n    address[] public owners;\n\n    // Mapping of owner address to keep track for lookups\n    mapping(address => bool) ownersMap;\n\n    // Nonce increments by one on each broadcast transaction to prevent replays\n    uint public nonce = 0;\n\n    // Number of required signatures from the list of owners\n    uint public requiredSignatures = 0;\n\n    // EIP712 Precomputed hashes:\n    // keccak256(\"EIP712Domain(string name,string version,uint256 chainId,address verifyingContract,bytes32 salt)\")\n    bytes32 constant EIP712DOMAINTYPE_HASH = 0xd87cd6ef79d4e2b95e15ce8abf732db51ec771f1ca2edccf22a46c729ac56472;\n\n    // keccak256(\"LiteSig\")\n    bytes32 constant NAME_HASH = 0xe0f1e1c99009e212fa1e207fccef2ee9432c52bbf5ef25688885ea0cce69531d;\n\n    // keccak256(\"1\")\n    bytes32 constant VERSION_HASH = 0xc89efdaa54c0f20c7adf612882df0950f5a951637e0307cdcb4c672f298b8bc6;\n\n    // keccak256(\"MultiSigTransaction(address destination,uint256 value,bytes data,uint256 nonce)\")\n    bytes32 constant TXTYPE_HASH = 0xe7beff35c01d1bb188c46fbae3d80f308d2600ba612c687a3e61446e0dffda0b;\n\n    // keccak256(\"TOKENSOFT\")\n    bytes32 constant SALT = 0x9c360831104e550f13ec032699c5f1d7f17190a31cdaf5c83945a04dfd319eea;\n\n    // Hash for EIP712, computed from data and contract address - ensures it can't be replayed against\n    // other contracts or chains\n    bytes32 public DOMAIN_SEPARATOR;\n\n    // Track init state\n    bool initialized = false;\n\n    // Track whether the wallet is in recovery mode\n    bool public inRecoveryMode = false;\n\n    // Track the date when recovery mode was enabled\n    uint public recoveryTimestamp = 0;\n\n    // Track the list of new owners if recovery is finalized\n    address[] public recoveryOwners;\n\n    // The init function inputs a list of owners and the number of signatures that\n    //   are required before a transaction is executed.\n    // Owners list must be in ascending address order.\n    // Required sigs must be greater than 0 and less than or equal to number of owners.\n    // Chain ID prevents replay across chains\n    // This function can only be run one time\n    function init(address[] memory _owners, uint _requiredSignatures, uint chainId) public {\n        // Verify it can't be initialized again\n        require(!initialized, \"Init function can only be run once\");\n        initialized = true;\n\n        // Verify the lengths of values being passed in\n        require(_owners.length > 0 && _owners.length <= 10, \"Owners List min is 1 and max is 10\");\n        require(\n            _requiredSignatures > 0 && _requiredSignatures <= _owners.length,\n            \"Required signatures must be in the proper range\"\n        );\n\n        // Verify the owners list is valid and in order\n        // No 0 addresses or duplicates\n        address lastAdd = address(0);\n        for (uint i = 0; i < _owners.length; i++) {\n            require(_owners[i] > lastAdd, \"Owner addresses must be unique and in order\");\n            ownersMap[_owners[i]] = true;\n            lastAdd = _owners[i];\n        }\n\n        // Save off owner list and required sig.\n        owners = _owners;\n        requiredSignatures = _requiredSignatures;\n\n        DOMAIN_SEPARATOR = keccak256(\n            abi.encode(EIP712DOMAINTYPE_HASH,\n            NAME_HASH,\n            VERSION_HASH,\n            chainId,\n            address(this),\n            SALT)\n        );\n    }\n\n    /**\n     * This function is adapted from the OpenZeppelin libarary but instead of passing in bytes\n     * array, it already has the sig fields broken down.\n     *\n     * @dev Returns the address that signed a hashed message (`hash`) with\n     * `signature`. This address can then be used for verification purposes.\n     *\n     * The `ecrecover` EVM opcode allows for malleable (non-unique) signatures:\n     * this function rejects them by requiring the `s` value to be in the lower\n     * half order, and the `v` value to be either 27 or 28.\n     *\n     * (.note) This call _does not revert_ if the signature is invalid, or\n     * if the signer is otherwise unable to be retrieved. In those scenarios,\n     * the zero address is returned.\n     *\n     * (.warning) `hash` _must_ be the result of a hash operation for the\n     * verification to be secure: it is possible to craft signatures that\n     * recover to arbitrary addresses for non-hashed data. A safe way to ensure\n     * this is by receiving a hash of the original message (which may otherwise)\n     * be too long), and then calling `toEthSignedMessageHash` on it.\n     */\n    function safeRecover(bytes32 hash, uint8 v, bytes32 r, bytes32 s) internal pure returns (address) {\n\n        // EIP-2 still allows signature malleability for ecrecover(). Remove this possibility and make the signature\n        // unique. Appendix F in the Ethereum Yellow paper (https://ethereum.github.io/yellowpaper/paper.pdf), defines\n        // the valid range for s in (281): 0 < s < secp256k1n  2 + 1, and for v in (282): v  {27, 28}. Most\n        // signatures from current libraries generate a unique signature with an s-value in the lower half order.\n        //\n        // If your library generates malleable signatures, such as s-values in the upper range, calculate a new s-value\n        // with 0xFFFFFFFFFFFFFFFFFFFFFFFFFFFFFFFEBAAEDCE6AF48A03BBFD25E8CD0364141 - s1 and flip v from 27 to 28 or\n        // vice versa. If your library also generates signatures with 0/1 for v instead 27/28, add 27 to v to accept\n        // these malleable signatures as well.\n        if (uint256(s) > 0x7FFFFFFFFFFFFFFFFFFFFFFFFFFFFFFF5D576E7357A4501DDFE92F46681B20A0) {\n            return address(0);\n        }\n\n        if (v != 27 && v != 28) {\n            return address(0);\n        }\n\n        // If the signature is valid (and not malleable), return the signer address\n        return ecrecover(hash, v, r, s);\n    }\n\n    /**\n     * Once the owners of the multisig have signed across the payload, they can submit it to this function.\n     * This will verify enough signatures were aggregated and then broadcast the transaction.\n     * It can be used to send ETH or trigger a function call against another address (or both).\n     *\n     * Signatures must be in the correct ascending order (according to associated addresses)\n     */\n    function submit(\n        uint8[] memory sigV,\n        bytes32[] memory sigR,\n        bytes32[] memory sigS,\n        address destination,\n        uint value,\n        bytes memory data\n    ) public returns (bool)\n    {\n        // Verify initialized\n        require(initialized, \"Initialization must be complete\");\n\n        // Verify signature lengths\n        require(sigR.length == sigS.length && sigR.length == sigV.length, \"Sig arrays not the same lengths\");\n        require(sigR.length == requiredSignatures, \"Signatures list is not the expected length\");\n\n        // EIP712 scheme: https://github.com/ethereum/EIPs/blob/master/EIPS/eip-712.md\n        // Note that the nonce is always included from the contract state to prevent replay attacks\n        bytes32 txInputHash = keccak256(abi.encode(TXTYPE_HASH, destination, value, keccak256(data), nonce));\n        bytes32 totalHash = keccak256(abi.encodePacked(\"\\x19\\x01\", DOMAIN_SEPARATOR, txInputHash));\n\n        // Add in the ETH specific prefix\n        bytes memory prefix = \"\\x19Ethereum Signed Message:\\n32\";\n        bytes32 prefixedHash = keccak256(abi.encodePacked(prefix, totalHash));\n\n        // Iterate and verify signatures are from owners\n        address lastAdd = address(0); // cannot have address(0) as an owner\n        for (uint i = 0; i < requiredSignatures; i++) {\n\n            // Recover the address from the signature - if anything is wrong, this will return 0\n            address recovered = safeRecover(prefixedHash, sigV[i], sigR[i], sigS[i]);\n\n            // Ensure the signature is from an owner address and there are no duplicates\n            // Also verifies error of 0 returned\n            require(ownersMap[recovered], \"Signature must be from an owner\");\n            require(recovered > lastAdd, \"Signature must be unique\");\n            lastAdd = recovered;\n        }\n\n        // Increment the nonce before making external call\n        nonce = nonce + 1;\n        (bool success, ) = address(destination).call.value(value)(data);\n        if(success) {\n            emit Execution(nonce, destination, value, data);\n        } else {\n            emit ExecutionFailure(nonce, destination, value, data);\n        }\n\n        // Any transaction going through will wipe any existing recovery attempt\n        if(inRecoveryMode) {\n            // Set the flag\n            inRecoveryMode = false;\n\n            // Emit the event to let listeners know this wallet is not in recover mode\n            emit RecoverCanceled(msg.sender);\n        }\n\n        return success;\n    }\n\n    // Allow ETH to be sent to this contract\n    function () external payable {\n        emit Deposit(msg.sender, msg.value);\n    }\n\n    modifier onlyOwner {\n        bool isOwner = false;\n        for(uint8 i = 0 ; i < owners.length; i++){\n            if(owners[i] == msg.sender){\n                isOwner = true;\n                break;\n            }\n        }\n        require(isOwner, \"Calling account is not an administrator.\");\n        _;\n    }\n\n    /**\n     * Any single owner can trigger to start a recovery.\n     * This should be used in case a user loses their keys.\n     */\n    function startRecover(address[] memory _recoveryOwners) public onlyOwner {\n        // Verify the owner list\n        require(owners.length == _recoveryOwners.length, \"The recovery owners length must be the same as previous list\");\n\n        // Verify the owners list is valid and in order\n        // No 0 addresses or duplicates\n        address lastAdd = address(0);\n        for (uint i = 0; i < _recoveryOwners.length; i++) {\n            require(_recoveryOwners[i] > lastAdd, \"Owner addresses must be unique and in order\");\n            lastAdd = _recoveryOwners[i];\n        }\n\n        // Save the desired recovery owners\n        recoveryOwners = _recoveryOwners;\n\n        // Save the timestamp recovery was requested\n        recoveryTimestamp = block.timestamp;\n\n        // Set recovery mode to true\n        inRecoveryMode = true;\n\n        // Emit the event to let listeners know this wallet is in recover mode\n        emit RecoverStarted(msg.sender, _recoveryOwners);\n    }\n\n    /**\n     * Any single owner can cancel an attempted recovery by another owner\n     */\n    function cancelRecover() public onlyOwner {\n        // Verify the wallet is in recovery mode\n        require(inRecoveryMode, \"Wallet must be in recovery mode to cancel it\");\n\n        // Wipe recovery state\n        inRecoveryMode = false;\n\n        // Emit the event to let listeners know this wallet is not in recover mode\n        emit RecoverCanceled(msg.sender);\n    }\n\n    /**\n     * After the timeout and no transactions or cancels have been performed, the recovery can be finalized.\n     * Finalizing it sets the new owners.\n     */\n    function finalizeRecover() public onlyOwner {\n        // Verify the wallet is in recovery mode\n        require(inRecoveryMode, \"Wallet must be in recovery mode to trigger a finalize\");\n\n        // Verify the 180 day timeout has occurred (86400 seconds per day)\n        require(recoveryTimestamp + (86400 * 180) < block.timestamp, \"180 Days must pass before recovery can be performed\");\n\n        // Wipe recovery state\n        inRecoveryMode = false;\n\n        // Replace the owners\n        owners = recoveryOwners;\n\n        // Emit the event to let listeners know this wallet has been recovered\n        emit RecoverFinalized(msg.sender, recoveryOwners);\n    }\n\n}\n",
  "sourcePath": "/Users/james/Source/tokensoft/LightSig/contracts/LiteSig.sol",
  "compiler": {
    "name": "solc",
    "version": "0.5.16+commit.9c3226ce.Emscripten.clang"
  },
  "schemaVersion": "3.0.22",
  "updatedAt": "2020-01-28T23:11:13.074Z",
  "devdoc": {
    "methods": {}
  },
  "userdoc": {
    "methods": {
      "cancelRecover()": {
        "notice": "Any single owner can cancel an attempted recovery by another owner"
      },
      "finalizeRecover()": {
        "notice": "After the timeout and no transactions or cancels have been performed, the recovery can be finalized. Finalizing it sets the new owners."
      },
      "startRecover(address[])": {
        "notice": "Any single owner can trigger to start a recovery. This should be used in case a user loses their keys."
      },
      "submit(uint8[],bytes32[],bytes32[],address,uint256,bytes)": {
        "notice": "Once the owners of the multisig have signed across the payload, they can submit it to this function. This will verify enough signatures were aggregated and then broadcast the transaction. It can be used to send ETH or trigger a function call against another address (or both).     * Signatures must be in the correct ascending order (according to associated addresses)"
      }
    },
    "notice": "LiteSig is a lighter weight multisig based on https://github.com/christianlundkvist/simple-multisig Owners aggregate signatures offline and then broadcast a transaction with the required number of signatures. Unlike other multisigs, this is meant to have minimal administration functions and other features in order to reduce the footprint and attack surface."
  }
}