{
  "contractName": "LiteSigFactory",
  "abi": [
    {
      "inputs": [
        {
          "internalType": "address",
          "name": "_liteSigLogicAddress",
          "type": "address"
        }
      ],
      "stateMutability": "nonpayable",
      "type": "constructor"
    },
    {
      "anonymous": false,
      "inputs": [
        {
          "indexed": true,
          "internalType": "address",
          "name": "addedAdmin",
          "type": "address"
        },
        {
          "indexed": true,
          "internalType": "address",
          "name": "addedBy",
          "type": "address"
        }
      ],
      "name": "AdminAdded",
      "type": "event"
    },
    {
      "anonymous": false,
      "inputs": [
        {
          "indexed": true,
          "internalType": "address",
          "name": "removedAdmin",
          "type": "address"
        },
        {
          "indexed": true,
          "internalType": "address",
          "name": "removedBy",
          "type": "address"
        }
      ],
      "name": "AdminRemoved",
      "type": "event"
    },
    {
      "anonymous": false,
      "inputs": [
        {
          "indexed": true,
          "internalType": "address",
          "name": "deployedAddress",
          "type": "address"
        }
      ],
      "name": "Deployed",
      "type": "event"
    },
    {
      "anonymous": false,
      "inputs": [
        {
          "indexed": true,
          "internalType": "address",
          "name": "previousOwner",
          "type": "address"
        },
        {
          "indexed": true,
          "internalType": "address",
          "name": "newOwner",
          "type": "address"
        }
      ],
      "name": "OwnershipTransferred",
      "type": "event"
    },
    {
      "inputs": [
        {
          "internalType": "address",
          "name": "adminToAdd",
          "type": "address"
        }
      ],
      "name": "addAdmin",
      "outputs": [],
      "stateMutability": "nonpayable",
      "type": "function"
    },
    {
      "inputs": [
        {
          "internalType": "address",
          "name": "",
          "type": "address"
        }
      ],
      "name": "administrators",
      "outputs": [
        {
          "internalType": "bool",
          "name": "",
          "type": "bool"
        }
      ],
      "stateMutability": "view",
      "type": "function"
    },
    {
      "inputs": [
        {
          "internalType": "address",
          "name": "addressToTest",
          "type": "address"
        }
      ],
      "name": "isAdministrator",
      "outputs": [
        {
          "internalType": "bool",
          "name": "",
          "type": "bool"
        }
      ],
      "stateMutability": "view",
      "type": "function"
    },
    {
      "inputs": [],
      "name": "owner",
      "outputs": [
        {
          "internalType": "address",
          "name": "",
          "type": "address"
        }
      ],
      "stateMutability": "view",
      "type": "function"
    },
    {
      "inputs": [
        {
          "internalType": "address",
          "name": "adminToRemove",
          "type": "address"
        }
      ],
      "name": "removeAdmin",
      "outputs": [],
      "stateMutability": "nonpayable",
      "type": "function"
    },
    {
      "inputs": [],
      "name": "renounceOwnership",
      "outputs": [],
      "stateMutability": "nonpayable",
      "type": "function"
    },
    {
      "inputs": [
        {
          "internalType": "address",
          "name": "newOwner",
          "type": "address"
        }
      ],
      "name": "transferOwnership",
      "outputs": [],
      "stateMutability": "nonpayable",
      "type": "function"
    },
    {
      "inputs": [
        {
          "internalType": "bytes32",
          "name": "salt",
          "type": "bytes32"
        },
        {
          "internalType": "address[]",
          "name": "_owners",
          "type": "address[]"
        },
        {
          "internalType": "uint256",
          "name": "_requiredSignatures",
          "type": "uint256"
        },
        {
          "internalType": "uint256",
          "name": "chainId",
          "type": "uint256"
        }
      ],
      "name": "createLiteSig",
      "outputs": [
        {
          "internalType": "address",
          "name": "",
          "type": "address"
        }
      ],
      "stateMutability": "nonpayable",
      "type": "function"
    }
  ],
  "bytecode": "0x608060405234801561001057600080fd5b506040516114f63803806114f68339818101604052602081101561003357600080fd5b8101908080519060200190929190505050600061005461014c60201b60201c565b9050806000806101000a81548173ffffffffffffffffffffffffffffffffffffffff021916908373ffffffffffffffffffffffffffffffffffffffff1602179055508073ffffffffffffffffffffffffffffffffffffffff16600073ffffffffffffffffffffffffffffffffffffffff167f8be0079c531659141344cd1fd0a4f28419497f9722a3daafe3b4186f6b6457e060405160405180910390a3506101053361015460201b61088e1760201c565b80600260006101000a81548173ffffffffffffffffffffffffffffffffffffffff021916908373ffffffffffffffffffffffffffffffffffffffff1602179055505061037f565b600033905090565b61016261014c60201b60201c565b73ffffffffffffffffffffffffffffffffffffffff1660008054906101000a900473ffffffffffffffffffffffffffffffffffffffff1673ffffffffffffffffffffffffffffffffffffffff1614610222576040517f08c379a00000000000000000000000000000000000000000000000000000000081526004018080602001828103825260208152602001807f4f776e61626c653a2063616c6c6572206973206e6f7420746865206f776e657281525060200191505060405180910390fd5b60001515600160008373ffffffffffffffffffffffffffffffffffffffff1673ffffffffffffffffffffffffffffffffffffffff16815260200190815260200160002060009054906101000a900460ff161515146102cb576040517f08c379a00000000000000000000000000000000000000000000000000000000081526004018080602001828103825260358152602001806114c16035913960400191505060405180910390fd5b60018060008373ffffffffffffffffffffffffffffffffffffffff1673ffffffffffffffffffffffffffffffffffffffff16815260200190815260200160002060006101000a81548160ff0219169083151502179055503373ffffffffffffffffffffffffffffffffffffffff168173ffffffffffffffffffffffffffffffffffffffff167fbf3f493c772c8c283fd124432c2d0f539ab343faa04258fe88e52912d36b102b60405160405180910390a350565b6111338061038e6000396000f3fe608060405234801561001057600080fd5b50600436106100885760003560e01c8063715018a61161005b578063715018a61461026f57806376be1585146102795780638da5cb5b146102d3578063f2fde38b1461030757610088565b80630a2eb3011461008d5780631785f53c146100e75780633d4b5a481461012b578063704802751461022b575b600080fd5b6100cf600480360360208110156100a357600080fd5b81019080803573ffffffffffffffffffffffffffffffffffffffff16906020019092919050505061034b565b60405180821515815260200191505060405180910390f35b610129600480360360208110156100fd57600080fd5b81019080803573ffffffffffffffffffffffffffffffffffffffff1690602001909291905050506103a1565b005b6101ff6004803603608081101561014157600080fd5b81019080803590602001909291908035906020019064010000000081111561016857600080fd5b82018360208201111561017a57600080fd5b8035906020019184602083028401116401000000008311171561019c57600080fd5b919080806020026020016040519081016040528093929190818152602001838360200280828437600081840152601f19601f82011690508083019250505050505050919291929080359060200190929190803590602001909291905050506105c7565b604051808273ffffffffffffffffffffffffffffffffffffffff16815260200191505060405180910390f35b61026d6004803603602081101561024157600080fd5b81019080803573ffffffffffffffffffffffffffffffffffffffff16906020019092919050505061088e565b005b610277610ab3565b005b6102bb6004803603602081101561028f57600080fd5b81019080803573ffffffffffffffffffffffffffffffffffffffff169060200190929190505050610c39565b60405180821515815260200191505060405180910390f35b6102db610c59565b604051808273ffffffffffffffffffffffffffffffffffffffff16815260200191505060405180910390f35b6103496004803603602081101561031d57600080fd5b81019080803573ffffffffffffffffffffffffffffffffffffffff169060200190929190505050610c82565b005b6000600160008373ffffffffffffffffffffffffffffffffffffffff1673ffffffffffffffffffffffffffffffffffffffff16815260200190815260200160002060009054906101000a900460ff169050919050565b6103a9610e8d565b73ffffffffffffffffffffffffffffffffffffffff1660008054906101000a900473ffffffffffffffffffffffffffffffffffffffff1673ffffffffffffffffffffffffffffffffffffffff1614610469576040517f08c379a00000000000000000000000000000000000000000000000000000000081526004018080602001828103825260208152602001807f4f776e61626c653a2063616c6c6572206973206e6f7420746865206f776e657281525060200191505060405180910390fd5b60011515600160008373ffffffffffffffffffffffffffffffffffffffff1673ffffffffffffffffffffffffffffffffffffffff16815260200190815260200160002060009054906101000a900460ff16151514610512576040517f08c379a000000000000000000000000000000000000000000000000000000000815260040180806020018281038252603d815260200180611064603d913960400191505060405180910390fd5b6000600160008373ffffffffffffffffffffffffffffffffffffffff1673ffffffffffffffffffffffffffffffffffffffff16815260200190815260200160002060006101000a81548160ff0219169083151502179055503373ffffffffffffffffffffffffffffffffffffffff168173ffffffffffffffffffffffffffffffffffffffff167fdb9d5d31320daf5bc7181d565b6da4d12e30f0f4d5aa324a992426c14a1d19ce60405160405180910390a350565b60006105d23361034b565b610627576040517f08c379a00000000000000000000000000000000000000000000000000000000081526004018080602001828103825260288152602001806110a16028913960400191505060405180910390fd5b600060606040518060200161063b90610e95565b6020820181038252601f19601f820116604052509050606081600260009054906101000a900473ffffffffffffffffffffffffffffffffffffffff16604051602001808273ffffffffffffffffffffffffffffffffffffffff1681526020019150506040516020818303038152906040526040516020018083805190602001908083835b602083106106e257805182526020820191506020810190506020830392506106bf565b6001836020036101000a03801982511681845116808217855250505050505090500182805190602001908083835b602083106107335780518252602082019150602081019050602083039250610710565b6001836020036101000a038019825116818451168082178552505050505050905001925050506040516020818303038152906040529050878151602083016000f59250823b61078157600080fd5b8273ffffffffffffffffffffffffffffffffffffffff1663ce7e8fcf8888886040518463ffffffff1660e01b81526004018080602001848152602001838152602001828103825285818151815260200191508051906020019060200280838360005b838110156107fe5780820151818401526020810190506107e3565b50505050905001945050505050600060405180830381600087803b15801561082557600080fd5b505af1158015610839573d6000803e3d6000fd5b505050508273ffffffffffffffffffffffffffffffffffffffff167ff40fcec21964ffb566044d083b4073f29f7f7929110ea19e1b3ebe375d89055e60405160405180910390a2829350505050949350505050565b610896610e8d565b73ffffffffffffffffffffffffffffffffffffffff1660008054906101000a900473ffffffffffffffffffffffffffffffffffffffff1673ffffffffffffffffffffffffffffffffffffffff1614610956576040517f08c379a00000000000000000000000000000000000000000000000000000000081526004018080602001828103825260208152602001807f4f776e61626c653a2063616c6c6572206973206e6f7420746865206f776e657281525060200191505060405180910390fd5b60001515600160008373ffffffffffffffffffffffffffffffffffffffff1673ffffffffffffffffffffffffffffffffffffffff16815260200190815260200160002060009054906101000a900460ff161515146109ff576040517f08c379a00000000000000000000000000000000000000000000000000000000081526004018080602001828103825260358152602001806110c96035913960400191505060405180910390fd5b60018060008373ffffffffffffffffffffffffffffffffffffffff1673ffffffffffffffffffffffffffffffffffffffff16815260200190815260200160002060006101000a81548160ff0219169083151502179055503373ffffffffffffffffffffffffffffffffffffffff168173ffffffffffffffffffffffffffffffffffffffff167fbf3f493c772c8c283fd124432c2d0f539ab343faa04258fe88e52912d36b102b60405160405180910390a350565b610abb610e8d565b73ffffffffffffffffffffffffffffffffffffffff1660008054906101000a900473ffffffffffffffffffffffffffffffffffffffff1673ffffffffffffffffffffffffffffffffffffffff1614610b7b576040517f08c379a00000000000000000000000000000000000000000000000000000000081526004018080602001828103825260208152602001807f4f776e61626c653a2063616c6c6572206973206e6f7420746865206f776e657281525060200191505060405180910390fd5b600073ffffffffffffffffffffffffffffffffffffffff1660008054906101000a900473ffffffffffffffffffffffffffffffffffffffff1673ffffffffffffffffffffffffffffffffffffffff167f8be0079c531659141344cd1fd0a4f28419497f9722a3daafe3b4186f6b6457e060405160405180910390a360008060006101000a81548173ffffffffffffffffffffffffffffffffffffffff021916908373ffffffffffffffffffffffffffffffffffffffff160217905550565b60016020528060005260406000206000915054906101000a900460ff1681565b60008060009054906101000a900473ffffffffffffffffffffffffffffffffffffffff16905090565b610c8a610e8d565b73ffffffffffffffffffffffffffffffffffffffff1660008054906101000a900473ffffffffffffffffffffffffffffffffffffffff1673ffffffffffffffffffffffffffffffffffffffff1614610d4a576040517f08c379a00000000000000000000000000000000000000000000000000000000081526004018080602001828103825260208152602001807f4f776e61626c653a2063616c6c6572206973206e6f7420746865206f776e657281525060200191505060405180910390fd5b600073ffffffffffffffffffffffffffffffffffffffff168173ffffffffffffffffffffffffffffffffffffffff161415610dd0576040517f08c379a000000000000000000000000000000000000000000000000000000000815260040180806020018281038252602681526020018061103e6026913960400191505060405180910390fd5b8073ffffffffffffffffffffffffffffffffffffffff1660008054906101000a900473ffffffffffffffffffffffffffffffffffffffff1673ffffffffffffffffffffffffffffffffffffffff167f8be0079c531659141344cd1fd0a4f28419497f9722a3daafe3b4186f6b6457e060405160405180910390a3806000806101000a81548173ffffffffffffffffffffffffffffffffffffffff021916908373ffffffffffffffffffffffffffffffffffffffff16021790555050565b600033905090565b61019b80610ea38339019056fe608060405234801561001057600080fd5b5060405161019b38038061019b8339818101604052602081101561003357600080fd5b8101908080519060200190929190505050600073ffffffffffffffffffffffffffffffffffffffff168173ffffffffffffffffffffffffffffffffffffffff1614156100e7576040517f08c379a000000000000000000000000000000000000000000000000000000000815260040180806020018281038252601c8152602001807f436f6e7472616374204c6f6769632063616e6e6f74206265203078300000000081525060200191505060405180910390fd5b807fc5f16f0fcc639fa48a6947836d9850f504798523bf8c9a3a87d5876cf622bcf755506082806101196000396000f3fe60806040527fc5f16f0fcc639fa48a6947836d9850f504798523bf8c9a3a87d5876cf622bcf75460405136600082376000803683855af43d806000843e81600081146048578184f35b8184fdfea264697066735822122057e2b75f32094d9306e5fd2560c740f1f4355a20978b9e58df81b2441782189964736f6c634300060c00334f776e61626c653a206e6577206f776e657220697320746865207a65726f20616464726573734163636f756e7420746f2062652072656d6f7665642066726f6d2061646d696e206c697374206973206e6f7420616c726561647920616e2061646d696e43616c6c696e67206163636f756e74206973206e6f7420616e2061646d696e6973747261746f722e4163636f756e7420746f20626520616464656420746f2061646d696e206c69737420697320616c726561647920616e2061646d696ea26469706673582212203f158b261dd48a644184a0767eec3a9012249516effd5c6db18183ef1538b9e664736f6c634300060c00334163636f756e7420746f20626520616464656420746f2061646d696e206c69737420697320616c726561647920616e2061646d696e",
  "immutableReferences": {},
  "source": "pragma solidity 0.6.12;\n\nimport \"./LiteSig.sol\";\nimport \"./Administratable.sol\";\nimport './Proxy.sol';\n\n/**\n * LiteSig Factory creates new instances of the proxy class pointing to the multisig \n * contract and triggers an event for listeners to see the new contract.\n */\ncontract LiteSigFactory is Administratable {\n\n  // Event to track deployments\n  event Deployed(address indexed deployedAddress);\n\n  // Address where LiteSig logic contract lives\n  address liteSigLogicAddress;\n\n  // Constructor for the factory\n  constructor(address _liteSigLogicAddress) public {\n    // Add the deployer as an admin by default\n    Administratable.addAdmin(msg.sender);\n\n    // Save the logic address\n    liteSigLogicAddress = _liteSigLogicAddress;\n  }\n\n  /**\n   * Function called by external addresses to create a new multisig contract\n   * Caller must be whitelisted as an admin - this is to prevent someone from sniping the address\n   * (the standard approach to locking in the sender addr into the salt was not chosen in case a long time\n   * passes before the contract is created and a new deployment account is required for some unknown reason)\n   */\n  function createLiteSig(bytes32 salt, address[] memory _owners, uint _requiredSignatures, uint chainId)\n    public onlyAdministrator returns (address) {\n    // Track the address for the new contract\n    address payable deployedAddress;\n\n    // Get the creation code from the Proxy class\n    bytes memory code = type(Proxy).creationCode;\n\n    // Pack the constructor arg for the proxy initialization\n    bytes memory deployCode = abi.encodePacked(code, abi.encode(liteSigLogicAddress));\n\n    // Drop into assembly to deploy with create2\n    assembly {\n      deployedAddress := create2(0, add(deployCode, 0x20), mload(deployCode), salt)\n      if iszero(extcodesize(deployedAddress)) { revert(0, 0) }\n    }\n\n    // Initialize the contract with this master's address\n    LiteSig(deployedAddress).init(_owners, _requiredSignatures, chainId);\n\n    // Trigger the event for any listeners\n    emit Deployed(deployedAddress);\n\n    // Return address back to caller if applicable\n    return deployedAddress;\n  }\n}",
  "sourcePath": "/Users/james/Source/tokensoft/litesig/contracts/LiteSigFactory.sol",
  "compiler": {
    "name": "solc",
    "version": "0.6.12+commit.27d51765.Emscripten.clang"
  },
  "schemaVersion": "3.2.3",
  "updatedAt": "2020-08-25T04:19:32.594Z",
  "devdoc": {
    "kind": "dev",
    "methods": {
      "owner()": {
        "details": "Returns the address of the current owner."
      },
      "renounceOwnership()": {
        "details": "Leaves the contract without owner. It will not be possible to call `onlyOwner` functions anymore. Can only be called by the current owner. NOTE: Renouncing ownership will leave the contract without an owner, thereby removing any functionality that is only available to the owner."
      },
      "transferOwnership(address)": {
        "details": "Transfers ownership of the contract to a new account (`newOwner`). Can only be called by the current owner."
      }
    },
    "version": 1
  },
  "userdoc": {
    "kind": "user",
    "methods": {
      "addAdmin(address)": {
        "notice": "Add an admin to the list.  This should only be callable by the owner of the contract."
      },
      "createLiteSig(bytes32,address[],uint256,uint256)": {
        "notice": "Function called by external addresses to create a new multisig contract Caller must be whitelisted as an admin - this is to prevent someone from sniping the address (the standard approach to locking in the sender addr into the salt was not chosen in case a long time passes before the contract is created and a new deployment account is required for some unknown reason)"
      },
      "isAdministrator(address)": {
        "notice": "Determine if the message sender is in the administrators list."
      },
      "removeAdmin(address)": {
        "notice": "Remove an admin from the list.  This should only be callable by the owner of the contract."
      }
    },
    "notice": "LiteSig Factory creates new instances of the proxy class pointing to the multisig  contract and triggers an event for listeners to see the new contract.",
    "version": 1
  }
}