{
  "contractName": "LiteSigFactory",
  "abi": [
    {
      "inputs": [],
      "payable": false,
      "stateMutability": "nonpayable",
      "type": "constructor"
    },
    {
      "anonymous": false,
      "inputs": [
        {
          "indexed": true,
          "internalType": "address",
          "name": "addedAdmin",
          "type": "address"
        },
        {
          "indexed": true,
          "internalType": "address",
          "name": "addedBy",
          "type": "address"
        }
      ],
      "name": "AdminAdded",
      "type": "event"
    },
    {
      "anonymous": false,
      "inputs": [
        {
          "indexed": true,
          "internalType": "address",
          "name": "removedAdmin",
          "type": "address"
        },
        {
          "indexed": true,
          "internalType": "address",
          "name": "removedBy",
          "type": "address"
        }
      ],
      "name": "AdminRemoved",
      "type": "event"
    },
    {
      "anonymous": false,
      "inputs": [
        {
          "indexed": true,
          "internalType": "address",
          "name": "deployedAddress",
          "type": "address"
        }
      ],
      "name": "Deployed",
      "type": "event"
    },
    {
      "anonymous": false,
      "inputs": [
        {
          "indexed": true,
          "internalType": "address",
          "name": "previousOwner",
          "type": "address"
        },
        {
          "indexed": true,
          "internalType": "address",
          "name": "newOwner",
          "type": "address"
        }
      ],
      "name": "OwnershipTransferred",
      "type": "event"
    },
    {
      "constant": false,
      "inputs": [
        {
          "internalType": "address",
          "name": "adminToAdd",
          "type": "address"
        }
      ],
      "name": "addAdmin",
      "outputs": [],
      "payable": false,
      "stateMutability": "nonpayable",
      "type": "function"
    },
    {
      "constant": true,
      "inputs": [
        {
          "internalType": "address",
          "name": "",
          "type": "address"
        }
      ],
      "name": "administrators",
      "outputs": [
        {
          "internalType": "bool",
          "name": "",
          "type": "bool"
        }
      ],
      "payable": false,
      "stateMutability": "view",
      "type": "function"
    },
    {
      "constant": true,
      "inputs": [
        {
          "internalType": "address",
          "name": "addressToTest",
          "type": "address"
        }
      ],
      "name": "isAdministrator",
      "outputs": [
        {
          "internalType": "bool",
          "name": "",
          "type": "bool"
        }
      ],
      "payable": false,
      "stateMutability": "view",
      "type": "function"
    },
    {
      "constant": true,
      "inputs": [],
      "name": "isOwner",
      "outputs": [
        {
          "internalType": "bool",
          "name": "",
          "type": "bool"
        }
      ],
      "payable": false,
      "stateMutability": "view",
      "type": "function"
    },
    {
      "constant": true,
      "inputs": [],
      "name": "owner",
      "outputs": [
        {
          "internalType": "address",
          "name": "",
          "type": "address"
        }
      ],
      "payable": false,
      "stateMutability": "view",
      "type": "function"
    },
    {
      "constant": false,
      "inputs": [
        {
          "internalType": "address",
          "name": "adminToRemove",
          "type": "address"
        }
      ],
      "name": "removeAdmin",
      "outputs": [],
      "payable": false,
      "stateMutability": "nonpayable",
      "type": "function"
    },
    {
      "constant": false,
      "inputs": [],
      "name": "renounceOwnership",
      "outputs": [],
      "payable": false,
      "stateMutability": "nonpayable",
      "type": "function"
    },
    {
      "constant": false,
      "inputs": [
        {
          "internalType": "address",
          "name": "newOwner",
          "type": "address"
        }
      ],
      "name": "transferOwnership",
      "outputs": [],
      "payable": false,
      "stateMutability": "nonpayable",
      "type": "function"
    },
    {
      "constant": false,
      "inputs": [
        {
          "internalType": "bytes32",
          "name": "salt",
          "type": "bytes32"
        },
        {
          "internalType": "address[]",
          "name": "_owners",
          "type": "address[]"
        },
        {
          "internalType": "uint256",
          "name": "_requiredSignatures",
          "type": "uint256"
        },
        {
          "internalType": "uint256",
          "name": "chainId",
          "type": "uint256"
        }
      ],
      "name": "createLiteSig",
      "outputs": [
        {
          "internalType": "address",
          "name": "",
          "type": "address"
        }
      ],
      "payable": false,
      "stateMutability": "nonpayable",
      "type": "function"
    }
  ],
  "bytecode": "0x608060405234801561001057600080fd5b50336000806101000a81548173ffffffffffffffffffffffffffffffffffffffff021916908373ffffffffffffffffffffffffffffffffffffffff1602179055506000809054906101000a900473ffffffffffffffffffffffffffffffffffffffff1673ffffffffffffffffffffffffffffffffffffffff16600073ffffffffffffffffffffffffffffffffffffffff167f8be0079c531659141344cd1fd0a4f28419497f9722a3daafe3b4186f6b6457e060405160405180910390a36100e0336100e560201b6107831760201c565b610319565b6100f36102c260201b60201c565b610165576040517f08c379a00000000000000000000000000000000000000000000000000000000081526004018080602001828103825260208152602001807f4f776e61626c653a2063616c6c6572206973206e6f7420746865206f776e657281525060200191505060405180910390fd5b60001515600160008373ffffffffffffffffffffffffffffffffffffffff1673ffffffffffffffffffffffffffffffffffffffff16815260200190815260200160002060009054906101000a900460ff1615151461020e576040517f08c379a000000000000000000000000000000000000000000000000000000000815260040180806020018281038252603581526020018061303d6035913960400191505060405180910390fd5b60018060008373ffffffffffffffffffffffffffffffffffffffff1673ffffffffffffffffffffffffffffffffffffffff16815260200190815260200160002060006101000a81548160ff0219169083151502179055503373ffffffffffffffffffffffffffffffffffffffff168173ffffffffffffffffffffffffffffffffffffffff167fbf3f493c772c8c283fd124432c2d0f539ab343faa04258fe88e52912d36b102b60405160405180910390a350565b60008060009054906101000a900473ffffffffffffffffffffffffffffffffffffffff1673ffffffffffffffffffffffffffffffffffffffff163373ffffffffffffffffffffffffffffffffffffffff1614905090565b612d15806103286000396000f3fe608060405234801561001057600080fd5b50600436106100935760003560e01c8063715018a611610066578063715018a61461029257806376be15851461029c5780638da5cb5b146102f85780638f32d59b14610342578063f2fde38b1461036457610093565b80630a2eb301146100985780631785f53c146100f45780633d4b5a4814610138578063704802751461024e575b600080fd5b6100da600480360360208110156100ae57600080fd5b81019080803573ffffffffffffffffffffffffffffffffffffffff1690602001909291905050506103a8565b604051808215151515815260200191505060405180910390f35b6101366004803603602081101561010a57600080fd5b81019080803573ffffffffffffffffffffffffffffffffffffffff1690602001909291905050506103fe565b005b61020c6004803603608081101561014e57600080fd5b81019080803590602001909291908035906020019064010000000081111561017557600080fd5b82018360208201111561018757600080fd5b803590602001918460208302840111640100000000831117156101a957600080fd5b919080806020026020016040519081016040528093929190818152602001838360200280828437600081840152601f19601f82011690508083019250505050505050919291929080359060200190929190803590602001909291905050506105d6565b604051808273ffffffffffffffffffffffffffffffffffffffff1673ffffffffffffffffffffffffffffffffffffffff16815260200191505060405180910390f35b6102906004803603602081101561026457600080fd5b81019080803573ffffffffffffffffffffffffffffffffffffffff169060200190929190505050610783565b005b61029a61095a565b005b6102de600480360360208110156102b257600080fd5b81019080803573ffffffffffffffffffffffffffffffffffffffff169060200190929190505050610a93565b604051808215151515815260200191505060405180910390f35b610300610ab3565b604051808273ffffffffffffffffffffffffffffffffffffffff1673ffffffffffffffffffffffffffffffffffffffff16815260200191505060405180910390f35b61034a610adc565b604051808215151515815260200191505060405180910390f35b6103a66004803603602081101561037a57600080fd5b81019080803573ffffffffffffffffffffffffffffffffffffffff169060200190929190505050610b33565b005b6000600160008373ffffffffffffffffffffffffffffffffffffffff1673ffffffffffffffffffffffffffffffffffffffff16815260200190815260200160002060009054906101000a900460ff169050919050565b610406610adc565b610478576040517f08c379a00000000000000000000000000000000000000000000000000000000081526004018080602001828103825260208152602001807f4f776e61626c653a2063616c6c6572206973206e6f7420746865206f776e657281525060200191505060405180910390fd5b60011515600160008373ffffffffffffffffffffffffffffffffffffffff1673ffffffffffffffffffffffffffffffffffffffff16815260200190815260200160002060009054906101000a900460ff16151514610521576040517f08c379a000000000000000000000000000000000000000000000000000000000815260040180806020018281038252603d815260200180612c47603d913960400191505060405180910390fd5b6000600160008373ffffffffffffffffffffffffffffffffffffffff1673ffffffffffffffffffffffffffffffffffffffff16815260200190815260200160002060006101000a81548160ff0219169083151502179055503373ffffffffffffffffffffffffffffffffffffffff168173ffffffffffffffffffffffffffffffffffffffff167fdb9d5d31320daf5bc7181d565b6da4d12e30f0f4d5aa324a992426c14a1d19ce60405160405180910390a350565b60006105e1336103a8565b610636576040517f08c379a0000000000000000000000000000000000000000000000000000000008152600401808060200182810382526028815260200180612c846028913960400191505060405180910390fd5b600060606040518060200161064a90610cfd565b6020820181038252601f19601f820116604052509050868151602083016000f59150813b61067757600080fd5b8173ffffffffffffffffffffffffffffffffffffffff1663ce7e8fcf8787876040518463ffffffff1660e01b81526004018080602001848152602001838152602001828103825285818151815260200191508051906020019060200280838360005b838110156106f45780820151818401526020810190506106d9565b50505050905001945050505050600060405180830381600087803b15801561071b57600080fd5b505af115801561072f573d6000803e3d6000fd5b505050508173ffffffffffffffffffffffffffffffffffffffff167ff40fcec21964ffb566044d083b4073f29f7f7929110ea19e1b3ebe375d89055e60405160405180910390a28192505050949350505050565b61078b610adc565b6107fd576040517f08c379a00000000000000000000000000000000000000000000000000000000081526004018080602001828103825260208152602001807f4f776e61626c653a2063616c6c6572206973206e6f7420746865206f776e657281525060200191505060405180910390fd5b60001515600160008373ffffffffffffffffffffffffffffffffffffffff1673ffffffffffffffffffffffffffffffffffffffff16815260200190815260200160002060009054906101000a900460ff161515146108a6576040517f08c379a0000000000000000000000000000000000000000000000000000000008152600401808060200182810382526035815260200180612cac6035913960400191505060405180910390fd5b60018060008373ffffffffffffffffffffffffffffffffffffffff1673ffffffffffffffffffffffffffffffffffffffff16815260200190815260200160002060006101000a81548160ff0219169083151502179055503373ffffffffffffffffffffffffffffffffffffffff168173ffffffffffffffffffffffffffffffffffffffff167fbf3f493c772c8c283fd124432c2d0f539ab343faa04258fe88e52912d36b102b60405160405180910390a350565b610962610adc565b6109d4576040517f08c379a00000000000000000000000000000000000000000000000000000000081526004018080602001828103825260208152602001807f4f776e61626c653a2063616c6c6572206973206e6f7420746865206f776e657281525060200191505060405180910390fd5b600073ffffffffffffffffffffffffffffffffffffffff166000809054906101000a900473ffffffffffffffffffffffffffffffffffffffff1673ffffffffffffffffffffffffffffffffffffffff167f8be0079c531659141344cd1fd0a4f28419497f9722a3daafe3b4186f6b6457e060405160405180910390a360008060006101000a81548173ffffffffffffffffffffffffffffffffffffffff021916908373ffffffffffffffffffffffffffffffffffffffff160217905550565b60016020528060005260406000206000915054906101000a900460ff1681565b60008060009054906101000a900473ffffffffffffffffffffffffffffffffffffffff16905090565b60008060009054906101000a900473ffffffffffffffffffffffffffffffffffffffff1673ffffffffffffffffffffffffffffffffffffffff163373ffffffffffffffffffffffffffffffffffffffff1614905090565b610b3b610adc565b610bad576040517f08c379a00000000000000000000000000000000000000000000000000000000081526004018080602001828103825260208152602001807f4f776e61626c653a2063616c6c6572206973206e6f7420746865206f776e657281525060200191505060405180910390fd5b610bb681610bb9565b50565b600073ffffffffffffffffffffffffffffffffffffffff168173ffffffffffffffffffffffffffffffffffffffff161415610c3f576040517f08c379a0000000000000000000000000000000000000000000000000000000008152600401808060200182810382526026815260200180612c216026913960400191505060405180910390fd5b8073ffffffffffffffffffffffffffffffffffffffff166000809054906101000a900473ffffffffffffffffffffffffffffffffffffffff1673ffffffffffffffffffffffffffffffffffffffff167f8be0079c531659141344cd1fd0a4f28419497f9722a3daafe3b4186f6b6457e060405160405180910390a3806000806101000a81548173ffffffffffffffffffffffffffffffffffffffff021916908373ffffffffffffffffffffffffffffffffffffffff16021790555050565b611f1680610d0b8339019056fe6080604052600060025560006003556000600560006101000a81548160ff0219169083151502179055506000600560016101000a81548160ff021916908315150217905550600060065534801561005557600080fd5b50611eb1806100656000396000f3fe6080604052600436106100a75760003560e01c806358a13bf71161006457806358a13bf71461056a57806368c50760146105e55780638d068043146105fc578063affed0e014610627578063b35056b814610652578063ce7e8fcf14610681576100a7565b8063025e7c27146100f757806313170d0714610172578063140fe52d1461019d578063166367451461026257806327803ad6146105285780633644e5151461053f575b3373ffffffffffffffffffffffffffffffffffffffff167fe1fffcc4923d04b559f4d29a8bfc6cda04eb5b0d3c460751c2402c5c5cc9109c346040518082815260200191505060405180910390a2005b34801561010357600080fd5b506101306004803603602081101561011a57600080fd5b810190808035906020019092919050505061075a565b604051808273ffffffffffffffffffffffffffffffffffffffff1673ffffffffffffffffffffffffffffffffffffffff16815260200191505060405180910390f35b34801561017e57600080fd5b50610187610796565b6040518082815260200191505060405180910390f35b3480156101a957600080fd5b50610260600480360360208110156101c057600080fd5b81019080803590602001906401000000008111156101dd57600080fd5b8201836020820111156101ef57600080fd5b8035906020019184602083028401116401000000008311171561021157600080fd5b919080806020026020016040519081016040528093929190818152602001838360200280828437600081840152601f19601f82011690508083019250505050505050919291929050505061079c565b005b34801561026e57600080fd5b5061050e600480360360c081101561028557600080fd5b81019080803590602001906401000000008111156102a257600080fd5b8201836020820111156102b457600080fd5b803590602001918460208302840111640100000000831117156102d657600080fd5b919080806020026020016040519081016040528093929190818152602001838360200280828437600081840152601f19601f8201169050808301925050505050505091929192908035906020019064010000000081111561033657600080fd5b82018360208201111561034857600080fd5b8035906020019184602083028401116401000000008311171561036a57600080fd5b919080806020026020016040519081016040528093929190818152602001838360200280828437600081840152601f19601f820116905080830192505050505050509192919290803590602001906401000000008111156103ca57600080fd5b8201836020820111156103dc57600080fd5b803590602001918460208302840111640100000000831117156103fe57600080fd5b919080806020026020016040519081016040528093929190818152602001838360200280828437600081840152601f19601f820116905080830192505050505050509192919290803573ffffffffffffffffffffffffffffffffffffffff169060200190929190803590602001909291908035906020019064010000000081111561048857600080fd5b82018360208201111561049a57600080fd5b803590602001918460018302840111640100000000831117156104bc57600080fd5b91908080601f016020809104026020016040519081016040528093929190818152602001838380828437600081840152601f19601f820116905080830192505050505050509192919290505050610a8c565b604051808215151515815260200191505060405180910390f35b34801561053457600080fd5b5061053d61124b565b005b34801561054b57600080fd5b50610554611407565b6040518082815260200191505060405180910390f35b34801561057657600080fd5b506105a36004803603602081101561058d57600080fd5b810190808035906020019092919050505061140d565b604051808273ffffffffffffffffffffffffffffffffffffffff1673ffffffffffffffffffffffffffffffffffffffff16815260200191505060405180910390f35b3480156105f157600080fd5b506105fa611449565b005b34801561060857600080fd5b506106116116f7565b6040518082815260200191505060405180910390f35b34801561063357600080fd5b5061063c6116fd565b6040518082815260200191505060405180910390f35b34801561065e57600080fd5b50610667611703565b604051808215151515815260200191505060405180910390f35b34801561068d57600080fd5b50610758600480360360608110156106a457600080fd5b81019080803590602001906401000000008111156106c157600080fd5b8201836020820111156106d357600080fd5b803590602001918460208302840111640100000000831117156106f557600080fd5b919080806020026020016040519081016040528093929190818152602001838360200280828437600081840152601f19601f8201169050808301925050505050505091929192908035906020019092919080359060200190929190505050611716565b005b6000818154811061076757fe5b906000526020600020016000915054906101000a900473ffffffffffffffffffffffffffffffffffffffff1681565b60065481565b600080905060008090505b6000805490508160ff16101561083b573373ffffffffffffffffffffffffffffffffffffffff1660008260ff16815481106107de57fe5b9060005260206000200160009054906101000a900473ffffffffffffffffffffffffffffffffffffffff1673ffffffffffffffffffffffffffffffffffffffff16141561082e576001915061083b565b80806001019150506107a7565b5080610892576040517f08c379a0000000000000000000000000000000000000000000000000000000008152600401808060200182810382526028815260200180611d896028913960400191505060405180910390fd5b8151600080549050146108f0576040517f08c379a000000000000000000000000000000000000000000000000000000000815260040180806020018281038252603c815260200180611ddd603c913960400191505060405180910390fd5b600080905060008090505b83518110156109be578173ffffffffffffffffffffffffffffffffffffffff1684828151811061092757fe5b602002602001015173ffffffffffffffffffffffffffffffffffffffff161161099b576040517f08c379a000000000000000000000000000000000000000000000000000000000815260040180806020018281038252602b815260200180611d3c602b913960400191505060405180910390fd5b8381815181106109a757fe5b6020026020010151915080806001019150506108fb565b5082600790805190602001906109d5929190611b9d565b50426006819055506001600560016101000a81548160ff0219169083151502179055503373ffffffffffffffffffffffffffffffffffffffff167fc7b0b906f2617e620c490371a39e2af2eaf12616ddfd7bd51445b7eefd6fe913846040518080602001828103825283818151815260200191508051906020019060200280838360005b83811015610a74578082015181840152602081019050610a59565b505050509050019250505060405180910390a2505050565b6000600560009054906101000a900460ff16610b10576040517f08c379a000000000000000000000000000000000000000000000000000000000815260040180806020018281038252601f8152602001807f496e697469616c697a6174696f6e206d75737420626520636f6d706c6574650081525060200191505060405180910390fd5b84518651148015610b22575086518651145b610b94576040517f08c379a000000000000000000000000000000000000000000000000000000000815260040180806020018281038252601f8152602001807f53696720617272617973206e6f74207468652073616d65206c656e677468730081525060200191505060405180910390fd5b600354865114610bef576040517f08c379a000000000000000000000000000000000000000000000000000000000815260040180806020018281038252602a815260200180611cbd602a913960400191505060405180910390fd5b60007fe7beff35c01d1bb188c46fbae3d80f308d2600ba612c687a3e61446e0dffda0b60001b85858580519060200120600254604051602001808681526020018573ffffffffffffffffffffffffffffffffffffffff1673ffffffffffffffffffffffffffffffffffffffff1681526020018481526020018381526020018281526020019550505050505060405160208183030381529060405280519060200120905060006004548260405160200180807f19010000000000000000000000000000000000000000000000000000000000008152506002018381526020018281526020019250505060405160208183030381529060405280519060200120905060606040518060400160405280601c81526020017f19457468657265756d205369676e6564204d6573736167653a0a3332000000008152509050600081836040516020018083805190602001908083835b60208310610d635780518252602082019150602081019050602083039250610d40565b6001836020036101000a03801982511681845116808217855250505050505090500182815260200192505050604051602081830303815290604052805190602001209050600080905060008090505b600354811015610f76576000610e03848f8481518110610dce57fe5b60200260200101518f8581518110610de257fe5b60200260200101518f8681518110610df657fe5b6020026020010151611acf565b9050600160008273ffffffffffffffffffffffffffffffffffffffff1673ffffffffffffffffffffffffffffffffffffffff16815260200190815260200160002060009054906101000a900460ff16610ec4576040517f08c379a000000000000000000000000000000000000000000000000000000000815260040180806020018281038252601f8152602001807f5369676e6174757265206d7573742062652066726f6d20616e206f776e65720081525060200191505060405180910390fd5b8273ffffffffffffffffffffffffffffffffffffffff168173ffffffffffffffffffffffffffffffffffffffff1611610f65576040517f08c379a00000000000000000000000000000000000000000000000000000000081526004018080602001828103825260188152602001807f5369676e6174757265206d75737420626520756e69717565000000000000000081525060200191505060405180910390fd5b809250508080600101915050610db2565b5060016002540160028190555060008973ffffffffffffffffffffffffffffffffffffffff1689896040518082805190602001908083835b60208310610fd15780518252602082019150602081019050602083039250610fae565b6001836020036101000a03801982511681845116808217855250505050505090500191505060006040518083038185875af1925050503d8060008114611033576040519150601f19603f3d011682016040523d82523d6000602084013e611038565b606091505b505090508015611105578973ffffffffffffffffffffffffffffffffffffffff166002547fedde58bc1eda2dcabe4c2ecfa4fc29862b663603e92d813f4fef217f0dd3597c8b8b6040518083815260200180602001828103825283818151815260200191508051906020019080838360005b838110156110c55780820151818401526020810190506110aa565b50505050905090810190601f1680156110f25780820380516001836020036101000a031916815260200191505b50935050505060405180910390a36111c4565b8973ffffffffffffffffffffffffffffffffffffffff166002547f87a63d04721a887e5a9303fb7950409e32f976f0e09bda2790353b5846a28d358b8b6040518083815260200180602001828103825283818151815260200191508051906020019080838360005b8381101561118857808201518184015260208101905061116d565b50505050905090810190601f1680156111b55780820380516001836020036101000a031916815260200191505b50935050505060405180910390a35b600560019054906101000a900460ff1615611238576000600560016101000a81548160ff0219169083151502179055503373ffffffffffffffffffffffffffffffffffffffff167f284a80a7abb37c8e19ea4d26f6004be2a2b69ef37aa23149e3ab837f72271a6960405160405180910390a25b8096505050505050509695505050505050565b600080905060008090505b6000805490508160ff1610156112ea573373ffffffffffffffffffffffffffffffffffffffff1660008260ff168154811061128d57fe5b9060005260206000200160009054906101000a900473ffffffffffffffffffffffffffffffffffffffff1673ffffffffffffffffffffffffffffffffffffffff1614156112dd57600191506112ea565b8080600101915050611256565b5080611341576040517f08c379a0000000000000000000000000000000000000000000000000000000008152600401808060200182810382526028815260200180611d896028913960400191505060405180910390fd5b600560019054906101000a900460ff166113a6576040517f08c379a000000000000000000000000000000000000000000000000000000000815260040180806020018281038252602c815260200180611db1602c913960400191505060405180910390fd5b6000600560016101000a81548160ff0219169083151502179055503373ffffffffffffffffffffffffffffffffffffffff167f284a80a7abb37c8e19ea4d26f6004be2a2b69ef37aa23149e3ab837f72271a6960405160405180910390a250565b60045481565b6007818154811061141a57fe5b906000526020600020016000915054906101000a900473ffffffffffffffffffffffffffffffffffffffff1681565b600080905060008090505b6000805490508160ff1610156114e8573373ffffffffffffffffffffffffffffffffffffffff1660008260ff168154811061148b57fe5b9060005260206000200160009054906101000a900473ffffffffffffffffffffffffffffffffffffffff1673ffffffffffffffffffffffffffffffffffffffff1614156114db57600191506114e8565b8080600101915050611454565b508061153f576040517f08c379a0000000000000000000000000000000000000000000000000000000008152600401808060200182810382526028815260200180611d896028913960400191505060405180910390fd5b600560019054906101000a900460ff166115a4576040517f08c379a0000000000000000000000000000000000000000000000000000000008152600401808060200182810382526035815260200180611e486035913960400191505060405180910390fd5b4262ed4e006006540110611603576040517f08c379a0000000000000000000000000000000000000000000000000000000008152600401808060200182810382526033815260200180611ce76033913960400191505060405180910390fd5b6000600560016101000a81548160ff02191690831515021790555060076000908054611630929190611c27565b503373ffffffffffffffffffffffffffffffffffffffff167fb49aa6f0d11caf6b57c275c92aceb857690e1e4ceadffca85f6a7679370b4e176007604051808060200182810382528381815481526020019150805480156116e657602002820191906000526020600020905b8160009054906101000a900473ffffffffffffffffffffffffffffffffffffffff1673ffffffffffffffffffffffffffffffffffffffff168152602001906001019080831161169c575b50509250505060405180910390a250565b60035481565b60025481565b600560019054906101000a900460ff1681565b600560009054906101000a900460ff161561177c576040517f08c379a0000000000000000000000000000000000000000000000000000000008152600401808060200182810382526022815260200180611d1a6022913960400191505060405180910390fd5b6001600560006101000a81548160ff021916908315150217905550600083511180156117aa5750600a835111155b6117ff576040517f08c379a0000000000000000000000000000000000000000000000000000000008152600401808060200182810382526022815260200180611d676022913960400191505060405180910390fd5b600082118015611810575082518211155b611865576040517f08c379a000000000000000000000000000000000000000000000000000000000815260040180806020018281038252602f815260200180611e19602f913960400191505060405180910390fd5b600080905060008090505b845181101561199d578173ffffffffffffffffffffffffffffffffffffffff1685828151811061189c57fe5b602002602001015173ffffffffffffffffffffffffffffffffffffffff1611611910576040517f08c379a000000000000000000000000000000000000000000000000000000000815260040180806020018281038252602b815260200180611d3c602b913960400191505060405180910390fd5b600180600087848151811061192157fe5b602002602001015173ffffffffffffffffffffffffffffffffffffffff1673ffffffffffffffffffffffffffffffffffffffff16815260200190815260200160002060006101000a81548160ff02191690831515021790555084818151811061198657fe5b602002602001015191508080600101915050611870565b5083600090805190602001906119b4929190611b9d565b50826003819055507fd87cd6ef79d4e2b95e15ce8abf732db51ec771f1ca2edccf22a46c729ac5647260001b7fe0f1e1c99009e212fa1e207fccef2ee9432c52bbf5ef25688885ea0cce69531d60001b7fc89efdaa54c0f20c7adf612882df0950f5a951637e0307cdcb4c672f298b8bc660001b84307f9c360831104e550f13ec032699c5f1d7f17190a31cdaf5c83945a04dfd319eea60001b604051602001808781526020018681526020018581526020018481526020018373ffffffffffffffffffffffffffffffffffffffff1673ffffffffffffffffffffffffffffffffffffffff16815260200182815260200196505050505050506040516020818303038152906040528051906020012060048190555050505050565b60007f7fffffffffffffffffffffffffffffff5d576e7357a4501ddfe92f46681b20a08260001c1115611b055760009050611b95565b601b8460ff1614158015611b1d5750601c8460ff1614155b15611b2b5760009050611b95565b60018585858560405160008152602001604052604051808581526020018460ff1660ff1681526020018381526020018281526020019450505050506020604051602081039080840390855afa158015611b88573d6000803e3d6000fd5b5050506020604051035190505b949350505050565b828054828255906000526020600020908101928215611c16579160200282015b82811115611c155782518260006101000a81548173ffffffffffffffffffffffffffffffffffffffff021916908373ffffffffffffffffffffffffffffffffffffffff16021790555091602001919060010190611bbd565b5b509050611c239190611c79565b5090565b828054828255906000526020600020908101928215611c685760005260206000209182015b82811115611c67578254825591600101919060010190611c4c565b5b509050611c759190611c79565b5090565b611cb991905b80821115611cb557600081816101000a81549073ffffffffffffffffffffffffffffffffffffffff021916905550600101611c7f565b5090565b9056fe5369676e617475726573206c697374206973206e6f7420746865206578706563746564206c656e6774683138302044617973206d7573742070617373206265666f7265207265636f766572792063616e20626520706572666f726d6564496e69742066756e6374696f6e2063616e206f6e6c792062652072756e206f6e63654f776e657220616464726573736573206d75737420626520756e6971756520616e6420696e206f726465724f776e657273204c697374206d696e206973203120616e64206d617820697320313043616c6c696e67206163636f756e74206973206e6f7420616e2061646d696e6973747261746f722e57616c6c6574206d75737420626520696e207265636f76657279206d6f646520746f2063616e63656c206974546865207265636f76657279206f776e657273206c656e677468206d757374206265207468652073616d652061732070726576696f7573206c6973745265717569726564207369676e617475726573206d75737420626520696e207468652070726f7065722072616e676557616c6c6574206d75737420626520696e207265636f76657279206d6f646520746f207472696767657220612066696e616c697a65a265627a7a72315820deb8162f1974056d965bd065e479548ae6e282d1a26120e58b9e1953dd1c744d64736f6c634300051000324f776e61626c653a206e6577206f776e657220697320746865207a65726f20616464726573734163636f756e7420746f2062652072656d6f7665642066726f6d2061646d696e206c697374206973206e6f7420616c726561647920616e2061646d696e43616c6c696e67206163636f756e74206973206e6f7420616e2061646d696e6973747261746f722e4163636f756e7420746f20626520616464656420746f2061646d696e206c69737420697320616c726561647920616e2061646d696ea265627a7a72315820770d89390954171c4a2e3af680f1ce3cc1ff9aa66d070db615dbdad712f21c8f64736f6c634300051000324163636f756e7420746f20626520616464656420746f2061646d696e206c69737420697320616c726561647920616e2061646d696e",
  "source": "pragma solidity 0.5.16;\n\nimport \"./LiteSig.sol\";\nimport \"./Administratable.sol\";\n\n/**\n * LiteSig Factory creates new instances of the multisig contract and triggers an event\n * for listeners to see the new contract.\n */\ncontract LiteSigFactory is Administratable {\n\n  // Event to track deployments\n  event Deployed(address indexed deployedAddress);\n\n  // Constructor for the factory\n  constructor() public {\n    // Add the deployer as an admin by default\n    Administratable.addAdmin(msg.sender);\n  }\n\n  /**\n   * Function called by external addresses to create a new multisig contract\n   * Caller must be whitelisted as an admin - this is to prevent someone from sniping the address\n   * (the standard approach to locking in the sender addr into the salt was not chosen in case a long time\n   * passes before the contract is created and a new deployment account is required for some unknown reason)\n   */\n  function createLiteSig(bytes32 salt, address[] memory _owners, uint _requiredSignatures, uint chainId)\n    public onlyAdministrator returns (address) {\n    // Track the address for the new contract\n    address payable deployedAddress;\n\n    // Get the creation code from the payment handler\n    bytes memory code = type(LiteSig).creationCode;\n\n    // Drop into assembly to deploy with create2\n    assembly {\n      deployedAddress := create2(0, add(code, 0x20), mload(code), salt)\n      if iszero(extcodesize(deployedAddress)) { revert(0, 0) }\n    }\n\n    // Initialize the contract with this master's address\n    LiteSig(deployedAddress).init(_owners, _requiredSignatures, chainId);\n\n    // Trigger the event for any listeners\n    emit Deployed(deployedAddress);\n\n    // Return address back to caller if applicable\n    return deployedAddress;\n  }\n}",
  "sourcePath": "/Users/james/Source/tokensoft/LightSig/contracts/LiteSigFactory.sol",
  "compiler": {
    "name": "solc",
    "version": "0.5.16+commit.9c3226ce.Emscripten.clang"
  },
  "schemaVersion": "3.0.22",
  "updatedAt": "2020-01-28T23:11:13.089Z",
  "devdoc": {
    "methods": {
      "isOwner()": {
        "details": "Returns true if the caller is the current owner."
      },
      "owner()": {
        "details": "Returns the address of the current owner."
      },
      "renounceOwnership()": {
        "details": "Leaves the contract without owner. It will not be possible to call `onlyOwner` functions anymore. Can only be called by the current owner.     * > Note: Renouncing ownership will leave the contract without an owner, thereby removing any functionality that is only available to the owner."
      },
      "transferOwnership(address)": {
        "details": "Transfers ownership of the contract to a new account (`newOwner`). Can only be called by the current owner."
      }
    }
  },
  "userdoc": {
    "methods": {
      "addAdmin(address)": {
        "notice": "Add an admin to the list.  This should only be callable by the owner of the contract."
      },
      "createLiteSig(bytes32,address[],uint256,uint256)": {
        "notice": "Function called by external addresses to create a new multisig contract Caller must be whitelisted as an admin - this is to prevent someone from sniping the address (the standard approach to locking in the sender addr into the salt was not chosen in case a long time passes before the contract is created and a new deployment account is required for some unknown reason)"
      },
      "isAdministrator(address)": {
        "notice": "Determine if the message sender is in the administrators list."
      },
      "removeAdmin(address)": {
        "notice": "Remove an admin from the list.  This should only be callable by the owner of the contract."
      }
    },
    "notice": "LiteSig Factory creates new instances of the multisig contract and triggers an event for listeners to see the new contract."
  }
}