{
  "contractName": "LiteSigFactory",
  "abi": [
    {
      "inputs": [
        {
          "internalType": "address",
          "name": "_liteSigLogicAddress",
          "type": "address"
        }
      ],
      "stateMutability": "nonpayable",
      "type": "constructor"
    },
    {
      "anonymous": false,
      "inputs": [
        {
          "indexed": true,
          "internalType": "address",
          "name": "addedAdmin",
          "type": "address"
        },
        {
          "indexed": true,
          "internalType": "address",
          "name": "addedBy",
          "type": "address"
        }
      ],
      "name": "AdminAdded",
      "type": "event"
    },
    {
      "anonymous": false,
      "inputs": [
        {
          "indexed": true,
          "internalType": "address",
          "name": "removedAdmin",
          "type": "address"
        },
        {
          "indexed": true,
          "internalType": "address",
          "name": "removedBy",
          "type": "address"
        }
      ],
      "name": "AdminRemoved",
      "type": "event"
    },
    {
      "anonymous": false,
      "inputs": [
        {
          "indexed": true,
          "internalType": "address",
          "name": "deployedAddress",
          "type": "address"
        }
      ],
      "name": "Deployed",
      "type": "event"
    },
    {
      "anonymous": false,
      "inputs": [
        {
          "indexed": true,
          "internalType": "address",
          "name": "previousOwner",
          "type": "address"
        },
        {
          "indexed": true,
          "internalType": "address",
          "name": "newOwner",
          "type": "address"
        }
      ],
      "name": "OwnershipTransferred",
      "type": "event"
    },
    {
      "inputs": [
        {
          "internalType": "address",
          "name": "adminToAdd",
          "type": "address"
        }
      ],
      "name": "addAdmin",
      "outputs": [],
      "stateMutability": "nonpayable",
      "type": "function"
    },
    {
      "inputs": [
        {
          "internalType": "address",
          "name": "",
          "type": "address"
        }
      ],
      "name": "administrators",
      "outputs": [
        {
          "internalType": "bool",
          "name": "",
          "type": "bool"
        }
      ],
      "stateMutability": "view",
      "type": "function"
    },
    {
      "inputs": [
        {
          "internalType": "address",
          "name": "addressToTest",
          "type": "address"
        }
      ],
      "name": "isAdministrator",
      "outputs": [
        {
          "internalType": "bool",
          "name": "",
          "type": "bool"
        }
      ],
      "stateMutability": "view",
      "type": "function"
    },
    {
      "inputs": [],
      "name": "liteSigLogicAddress",
      "outputs": [
        {
          "internalType": "address",
          "name": "",
          "type": "address"
        }
      ],
      "stateMutability": "view",
      "type": "function"
    },
    {
      "inputs": [],
      "name": "owner",
      "outputs": [
        {
          "internalType": "address",
          "name": "",
          "type": "address"
        }
      ],
      "stateMutability": "view",
      "type": "function"
    },
    {
      "inputs": [
        {
          "internalType": "address",
          "name": "adminToRemove",
          "type": "address"
        }
      ],
      "name": "removeAdmin",
      "outputs": [],
      "stateMutability": "nonpayable",
      "type": "function"
    },
    {
      "inputs": [],
      "name": "renounceOwnership",
      "outputs": [],
      "stateMutability": "nonpayable",
      "type": "function"
    },
    {
      "inputs": [
        {
          "internalType": "address",
          "name": "newOwner",
          "type": "address"
        }
      ],
      "name": "transferOwnership",
      "outputs": [],
      "stateMutability": "nonpayable",
      "type": "function"
    },
    {
      "inputs": [
        {
          "internalType": "bytes32",
          "name": "salt",
          "type": "bytes32"
        },
        {
          "internalType": "address[]",
          "name": "_owners",
          "type": "address[]"
        },
        {
          "internalType": "uint256",
          "name": "_requiredSignatures",
          "type": "uint256"
        },
        {
          "internalType": "uint256",
          "name": "chainId",
          "type": "uint256"
        }
      ],
      "name": "createLiteSig",
      "outputs": [
        {
          "internalType": "address",
          "name": "",
          "type": "address"
        }
      ],
      "stateMutability": "nonpayable",
      "type": "function"
    }
  ],
  "bytecode": "0x608060405234801561001057600080fd5b5060405161155b38038061155b8339818101604052602081101561003357600080fd5b8101908080519060200190929190505050600061005461014c60201b60201c565b9050806000806101000a81548173ffffffffffffffffffffffffffffffffffffffff021916908373ffffffffffffffffffffffffffffffffffffffff1602179055508073ffffffffffffffffffffffffffffffffffffffff16600073ffffffffffffffffffffffffffffffffffffffff167f8be0079c531659141344cd1fd0a4f28419497f9722a3daafe3b4186f6b6457e060405160405180910390a3506101053361015460201b6108f31760201c565b80600260006101000a81548173ffffffffffffffffffffffffffffffffffffffff021916908373ffffffffffffffffffffffffffffffffffffffff1602179055505061037f565b600033905090565b61016261014c60201b60201c565b73ffffffffffffffffffffffffffffffffffffffff1660008054906101000a900473ffffffffffffffffffffffffffffffffffffffff1673ffffffffffffffffffffffffffffffffffffffff1614610222576040517f08c379a00000000000000000000000000000000000000000000000000000000081526004018080602001828103825260208152602001807f4f776e61626c653a2063616c6c6572206973206e6f7420746865206f776e657281525060200191505060405180910390fd5b60001515600160008373ffffffffffffffffffffffffffffffffffffffff1673ffffffffffffffffffffffffffffffffffffffff16815260200190815260200160002060009054906101000a900460ff161515146102cb576040517f08c379a00000000000000000000000000000000000000000000000000000000081526004018080602001828103825260358152602001806115266035913960400191505060405180910390fd5b60018060008373ffffffffffffffffffffffffffffffffffffffff1673ffffffffffffffffffffffffffffffffffffffff16815260200190815260200160002060006101000a81548160ff0219169083151502179055503373ffffffffffffffffffffffffffffffffffffffff168173ffffffffffffffffffffffffffffffffffffffff167fbf3f493c772c8c283fd124432c2d0f539ab343faa04258fe88e52912d36b102b60405160405180910390a350565b6111988061038e6000396000f3fe608060405234801561001057600080fd5b50600436106100935760003560e01c80637048027511610066578063704802751461026a578063715018a6146102ae57806376be1585146102b85780638da5cb5b14610312578063f2fde38b1461034657610093565b80630a2eb301146100985780631785f53c146100f25780633d4b5a48146101365780634a57190f14610236575b600080fd5b6100da600480360360208110156100ae57600080fd5b81019080803573ffffffffffffffffffffffffffffffffffffffff16906020019092919050505061038a565b60405180821515815260200191505060405180910390f35b6101346004803603602081101561010857600080fd5b81019080803573ffffffffffffffffffffffffffffffffffffffff1690602001909291905050506103e0565b005b61020a6004803603608081101561014c57600080fd5b81019080803590602001909291908035906020019064010000000081111561017357600080fd5b82018360208201111561018557600080fd5b803590602001918460208302840111640100000000831117156101a757600080fd5b919080806020026020016040519081016040528093929190818152602001838360200280828437600081840152601f19601f8201169050808301925050505050505091929192908035906020019092919080359060200190929190505050610606565b604051808273ffffffffffffffffffffffffffffffffffffffff16815260200191505060405180910390f35b61023e6108cd565b604051808273ffffffffffffffffffffffffffffffffffffffff16815260200191505060405180910390f35b6102ac6004803603602081101561028057600080fd5b81019080803573ffffffffffffffffffffffffffffffffffffffff1690602001909291905050506108f3565b005b6102b6610b18565b005b6102fa600480360360208110156102ce57600080fd5b81019080803573ffffffffffffffffffffffffffffffffffffffff169060200190929190505050610c9e565b60405180821515815260200191505060405180910390f35b61031a610cbe565b604051808273ffffffffffffffffffffffffffffffffffffffff16815260200191505060405180910390f35b6103886004803603602081101561035c57600080fd5b81019080803573ffffffffffffffffffffffffffffffffffffffff169060200190929190505050610ce7565b005b6000600160008373ffffffffffffffffffffffffffffffffffffffff1673ffffffffffffffffffffffffffffffffffffffff16815260200190815260200160002060009054906101000a900460ff169050919050565b6103e8610ef2565b73ffffffffffffffffffffffffffffffffffffffff1660008054906101000a900473ffffffffffffffffffffffffffffffffffffffff1673ffffffffffffffffffffffffffffffffffffffff16146104a8576040517f08c379a00000000000000000000000000000000000000000000000000000000081526004018080602001828103825260208152602001807f4f776e61626c653a2063616c6c6572206973206e6f7420746865206f776e657281525060200191505060405180910390fd5b60011515600160008373ffffffffffffffffffffffffffffffffffffffff1673ffffffffffffffffffffffffffffffffffffffff16815260200190815260200160002060009054906101000a900460ff16151514610551576040517f08c379a000000000000000000000000000000000000000000000000000000000815260040180806020018281038252603d8152602001806110c9603d913960400191505060405180910390fd5b6000600160008373ffffffffffffffffffffffffffffffffffffffff1673ffffffffffffffffffffffffffffffffffffffff16815260200190815260200160002060006101000a81548160ff0219169083151502179055503373ffffffffffffffffffffffffffffffffffffffff168173ffffffffffffffffffffffffffffffffffffffff167fdb9d5d31320daf5bc7181d565b6da4d12e30f0f4d5aa324a992426c14a1d19ce60405160405180910390a350565b60006106113361038a565b610666576040517f08c379a00000000000000000000000000000000000000000000000000000000081526004018080602001828103825260288152602001806111066028913960400191505060405180910390fd5b600060606040518060200161067a90610efa565b6020820181038252601f19601f820116604052509050606081600260009054906101000a900473ffffffffffffffffffffffffffffffffffffffff16604051602001808273ffffffffffffffffffffffffffffffffffffffff1681526020019150506040516020818303038152906040526040516020018083805190602001908083835b6020831061072157805182526020820191506020810190506020830392506106fe565b6001836020036101000a03801982511681845116808217855250505050505090500182805190602001908083835b60208310610772578051825260208201915060208101905060208303925061074f565b6001836020036101000a038019825116818451168082178552505050505050905001925050506040516020818303038152906040529050878151602083016000f59250823b6107c057600080fd5b8273ffffffffffffffffffffffffffffffffffffffff1663ce7e8fcf8888886040518463ffffffff1660e01b81526004018080602001848152602001838152602001828103825285818151815260200191508051906020019060200280838360005b8381101561083d578082015181840152602081019050610822565b50505050905001945050505050600060405180830381600087803b15801561086457600080fd5b505af1158015610878573d6000803e3d6000fd5b505050508273ffffffffffffffffffffffffffffffffffffffff167ff40fcec21964ffb566044d083b4073f29f7f7929110ea19e1b3ebe375d89055e60405160405180910390a2829350505050949350505050565b600260009054906101000a900473ffffffffffffffffffffffffffffffffffffffff1681565b6108fb610ef2565b73ffffffffffffffffffffffffffffffffffffffff1660008054906101000a900473ffffffffffffffffffffffffffffffffffffffff1673ffffffffffffffffffffffffffffffffffffffff16146109bb576040517f08c379a00000000000000000000000000000000000000000000000000000000081526004018080602001828103825260208152602001807f4f776e61626c653a2063616c6c6572206973206e6f7420746865206f776e657281525060200191505060405180910390fd5b60001515600160008373ffffffffffffffffffffffffffffffffffffffff1673ffffffffffffffffffffffffffffffffffffffff16815260200190815260200160002060009054906101000a900460ff16151514610a64576040517f08c379a000000000000000000000000000000000000000000000000000000000815260040180806020018281038252603581526020018061112e6035913960400191505060405180910390fd5b60018060008373ffffffffffffffffffffffffffffffffffffffff1673ffffffffffffffffffffffffffffffffffffffff16815260200190815260200160002060006101000a81548160ff0219169083151502179055503373ffffffffffffffffffffffffffffffffffffffff168173ffffffffffffffffffffffffffffffffffffffff167fbf3f493c772c8c283fd124432c2d0f539ab343faa04258fe88e52912d36b102b60405160405180910390a350565b610b20610ef2565b73ffffffffffffffffffffffffffffffffffffffff1660008054906101000a900473ffffffffffffffffffffffffffffffffffffffff1673ffffffffffffffffffffffffffffffffffffffff1614610be0576040517f08c379a00000000000000000000000000000000000000000000000000000000081526004018080602001828103825260208152602001807f4f776e61626c653a2063616c6c6572206973206e6f7420746865206f776e657281525060200191505060405180910390fd5b600073ffffffffffffffffffffffffffffffffffffffff1660008054906101000a900473ffffffffffffffffffffffffffffffffffffffff1673ffffffffffffffffffffffffffffffffffffffff167f8be0079c531659141344cd1fd0a4f28419497f9722a3daafe3b4186f6b6457e060405160405180910390a360008060006101000a81548173ffffffffffffffffffffffffffffffffffffffff021916908373ffffffffffffffffffffffffffffffffffffffff160217905550565b60016020528060005260406000206000915054906101000a900460ff1681565b60008060009054906101000a900473ffffffffffffffffffffffffffffffffffffffff16905090565b610cef610ef2565b73ffffffffffffffffffffffffffffffffffffffff1660008054906101000a900473ffffffffffffffffffffffffffffffffffffffff1673ffffffffffffffffffffffffffffffffffffffff1614610daf576040517f08c379a00000000000000000000000000000000000000000000000000000000081526004018080602001828103825260208152602001807f4f776e61626c653a2063616c6c6572206973206e6f7420746865206f776e657281525060200191505060405180910390fd5b600073ffffffffffffffffffffffffffffffffffffffff168173ffffffffffffffffffffffffffffffffffffffff161415610e35576040517f08c379a00000000000000000000000000000000000000000000000000000000081526004018080602001828103825260268152602001806110a36026913960400191505060405180910390fd5b8073ffffffffffffffffffffffffffffffffffffffff1660008054906101000a900473ffffffffffffffffffffffffffffffffffffffff1673ffffffffffffffffffffffffffffffffffffffff167f8be0079c531659141344cd1fd0a4f28419497f9722a3daafe3b4186f6b6457e060405160405180910390a3806000806101000a81548173ffffffffffffffffffffffffffffffffffffffff021916908373ffffffffffffffffffffffffffffffffffffffff16021790555050565b600033905090565b61019b80610f088339019056fe608060405234801561001057600080fd5b5060405161019b38038061019b8339818101604052602081101561003357600080fd5b8101908080519060200190929190505050600073ffffffffffffffffffffffffffffffffffffffff168173ffffffffffffffffffffffffffffffffffffffff1614156100e7576040517f08c379a000000000000000000000000000000000000000000000000000000000815260040180806020018281038252601c8152602001807f436f6e7472616374204c6f6769632063616e6e6f74206265203078300000000081525060200191505060405180910390fd5b807fc5f16f0fcc639fa48a6947836d9850f504798523bf8c9a3a87d5876cf622bcf755506082806101196000396000f3fe60806040527fc5f16f0fcc639fa48a6947836d9850f504798523bf8c9a3a87d5876cf622bcf75460405136600082376000803683855af43d806000843e81600081146048578184f35b8184fdfea264697066735822122057e2b75f32094d9306e5fd2560c740f1f4355a20978b9e58df81b2441782189964736f6c634300060c00334f776e61626c653a206e6577206f776e657220697320746865207a65726f20616464726573734163636f756e7420746f2062652072656d6f7665642066726f6d2061646d696e206c697374206973206e6f7420616c726561647920616e2061646d696e43616c6c696e67206163636f756e74206973206e6f7420616e2061646d696e6973747261746f722e4163636f756e7420746f20626520616464656420746f2061646d696e206c69737420697320616c726561647920616e2061646d696ea2646970667358221220b1f2c6e2af38010b87d9ea223be2d9bad8e4051bd5a8c2c723945b6b27bd988c64736f6c634300060c00334163636f756e7420746f20626520616464656420746f2061646d696e206c69737420697320616c726561647920616e2061646d696e",
  "immutableReferences": {},
  "source": "pragma solidity 0.6.12;\n\nimport \"./LiteSig.sol\";\nimport \"./Administratable.sol\";\nimport './Proxy.sol';\n\n/**\n * LiteSig Factory creates new instances of the proxy class pointing to the multisig \n * contract and triggers an event for listeners to see the new contract.\n */\ncontract LiteSigFactory is Administratable {\n\n  // Event to track deployments\n  event Deployed(address indexed deployedAddress);\n\n  // Address where LiteSig logic contract lives\n  address public liteSigLogicAddress;\n\n  // Constructor for the factory\n  constructor(address _liteSigLogicAddress) public {\n    // Add the deployer as an admin by default\n    Administratable.addAdmin(msg.sender);\n\n    // Save the logic address\n    liteSigLogicAddress = _liteSigLogicAddress;\n  }\n\n  /**\n   * Function called by external addresses to create a new multisig contract\n   * Caller must be whitelisted as an admin - this is to prevent someone from sniping the address\n   * (the standard approach to locking in the sender addr into the salt was not chosen in case a long time\n   * passes before the contract is created and a new deployment account is required for some unknown reason)\n   */\n  function createLiteSig(bytes32 salt, address[] memory _owners, uint _requiredSignatures, uint chainId)\n    public onlyAdministrator returns (address) {\n    // Track the address for the new contract\n    address payable deployedAddress;\n\n    // Get the creation code from the Proxy class\n    bytes memory code = type(Proxy).creationCode;\n\n    // Pack the constructor arg for the proxy initialization\n    bytes memory deployCode = abi.encodePacked(code, abi.encode(liteSigLogicAddress));\n\n    // Drop into assembly to deploy with create2\n    assembly {\n      deployedAddress := create2(0, add(deployCode, 0x20), mload(deployCode), salt)\n      if iszero(extcodesize(deployedAddress)) { revert(0, 0) }\n    }\n\n    // Initialize the contract with this master's address\n    LiteSig(deployedAddress).init(_owners, _requiredSignatures, chainId);\n\n    // Trigger the event for any listeners\n    emit Deployed(deployedAddress);\n\n    // Return address back to caller if applicable\n    return deployedAddress;\n  }\n}",
  "sourcePath": "/Users/james/Source/tokensoft/litesig/contracts/LiteSigFactory.sol",
  "compiler": {
    "name": "solc",
    "version": "0.6.12+commit.27d51765.Emscripten.clang"
  },
  "schemaVersion": "3.2.3",
  "updatedAt": "2020-08-26T01:41:14.887Z",
  "devdoc": {
    "kind": "dev",
    "methods": {
      "owner()": {
        "details": "Returns the address of the current owner."
      },
      "renounceOwnership()": {
        "details": "Leaves the contract without owner. It will not be possible to call `onlyOwner` functions anymore. Can only be called by the current owner. NOTE: Renouncing ownership will leave the contract without an owner, thereby removing any functionality that is only available to the owner."
      },
      "transferOwnership(address)": {
        "details": "Transfers ownership of the contract to a new account (`newOwner`). Can only be called by the current owner."
      }
    },
    "version": 1
  },
  "userdoc": {
    "kind": "user",
    "methods": {
      "addAdmin(address)": {
        "notice": "Add an admin to the list.  This should only be callable by the owner of the contract."
      },
      "createLiteSig(bytes32,address[],uint256,uint256)": {
        "notice": "Function called by external addresses to create a new multisig contract Caller must be whitelisted as an admin - this is to prevent someone from sniping the address (the standard approach to locking in the sender addr into the salt was not chosen in case a long time passes before the contract is created and a new deployment account is required for some unknown reason)"
      },
      "isAdministrator(address)": {
        "notice": "Determine if the message sender is in the administrators list."
      },
      "removeAdmin(address)": {
        "notice": "Remove an admin from the list.  This should only be callable by the owner of the contract."
      }
    },
    "notice": "LiteSig Factory creates new instances of the proxy class pointing to the multisig  contract and triggers an event for listeners to see the new contract.",
    "version": 1
  }
}